:10000000401A002061970100498E00004D8E0000CB
:10001000A70A02020002000004180FAC0065BC0031
:1000200000000000000000000000000000000000D0
:1000300000000000B01203000000000000000000FB
:100040000000000000000000FFFFFFFFFFFFFFFFB8
:10005000FFFFFFFFFFFFFFFFFFFFFFFFFFFFFFFFB0
:1000600000E00F000000000000001000FFFFFFFF95
:10007000FFFFFFFF1C000000000000000000000068
:10008000E04C0020DC400020DC400020DC40002070
:10009000401A0020DC46030000BF0200E0100020F0
:0C00A000C010002000001000E04C002008
:10020000401A002061970100498E00004D8E0000C9
:10021000558E0000518E0000598E00005D97010040
:100220005D9701005D9701005D9701005D970100FA
:100230005D8E00005D9701005D9701005D970100F4
:10024000E1A700000D83010045910000D08E000061
:10025000D17D010079830100198301003183010000
:1002600011830100159F0000E99F000005BE0000FA
:1002700051030100D08E0000D08E0000057D0000EB
:10028000D08E0000D08E00000DA00000D08E0000A7
:10029000D08E0000D08E0000D08E0000D08E0000E6
:1002A000D08E0000D08E0000D08E0000D08E0000D6
:1002B0007D8301001583010065A50000BD83010059
:1002C000D08E0000F16C0100D08E0000D08E0000B6
:1002D000D08E0000D08E0000D08E0000D08E0000A6
:1002E000D08E0000D08E0000D08E0000D08E000096
:1002F000D08E0000D08E0000D08E0000D08E000086
:0C030000D08E0000D08E00005D97010040
:10030C00F8B500BFF8BC08BC9E467047F8B500BFF6
:10031C00F8BC08BC9E46704710B5054C237833B921
:10032C00044B13B10448AFF300800123237010BDBC
:10033C004420002000000000D040030008B5034B0F
:10034C001BB103490348AFF3008008BD0000000057
:10035C0048200020D0400300154B002B08BF134B46
:10036C009D46A3F5803A00218B460F461348144A4C
:10037C00121A2BF0ACFD0F4B002B00D098470E4BF4
:10038C00002B00D098470020002104000D000D48E0
:10039C00002802D00C48AFF300802BF069FD200040
:1003AC00290010F06FFA2BF04FFD00BF0000080081
:1003BC00401A002000000000000000004420002033
:1003CC00DC4000200000000000000000F0B5254BD0
:1003DC00254E85B000241C7000F074FF02280746DF
:1003EC0027D102F059FF31780125062905710FD16B
:1003FC001E4B3A46284602F0C5FE02F0FDFE1C4A92
:10040C001C490346012005B0BDE8F04004F0CEBB0A
:10041C000729F2D104F016FF1423C0B20193009007
:10042C00CDE90244144B22460821284602F0AAFECC
:10043C00E3E73378072B10D110F042FD0F4A009000
:10044C000F4B1049012004F0B1FB0F4820F004FDC4
:10045C000E4B01221A7005B0F0BD0FF0DBFA0C4AFE
:10046C00EDE700BF382E002061200020ABE2020037
:10047C0053C10200A6170300CBDF020044C10200E7
:10048C00BEDB020064C10200402E00206020002070
:10049C004EC1020038B50F4B0F4C1B780025257050
:1004AC0093B100F00FFF022809D0284608F04CFD4C
:1004BC0020464FF47A61BDE8384020F0D9BC0020CA
:1004CC00BDE8384008F01CBD00F0FCFE0228F6D058
:1004DC0038BD00BF60200020402E002010B5074B17
:1004EC00002201201A700DF087FF054A05490346CA
:1004FC00BDE81040012004F059BB00BF302E002095
:10050C00BEDB020081C10200912808B504D1002095
:10051C0008F008FD002008BD9028FBD1002008F051
:10052C00EFFCF7E721B9034B1870034820F094BC9B
:10053C00704700BF61200020382E002013B50B4BF4
:10054C00009004460A4A0B49012004F02FFB24B109
:10055C00094B00221A7002B010BD084840F6B831A1
:10056C0002B0BDE8104020F083BC00BF78C102008F
:10057C004EC1020064C1020060200020302E002019
:10058C0007B500230093074A074B0849012004F0E4
:10059C000DFB074840F6B83103B05DF804EB20F0D2
:1005AC0067BC00BF44C1020078C1020064C10200F4
:1005BC00302E002007B501200090054B054A064956
:1005CC0004F0F4FA054B00221A7003B05DF804FB3A
:1005DC0078C1020044C1020064C102006020002006
:1005EC0008B5054A05490346012004F0DFFA044B1F
:1005FC0000221A7008BD00BF78C1020081C1020040
:10060C006020002008B5022003F094FE044B002269
:10061C001A7002200EF07CFABDE8084003F079BE97
:10062C00582E002008B5002003F06CFE044B00226D
:10063C001A700DF0EFF9BDE8084003F06ABE00BF78
:10064C00482E002008B5002003F05CFE044B00226D
:10065C001A700DF001FDBDE8084003F05ABE00BF52
:10066C00502E002008B5012003F064FE044B00223C
:10067C001A7001200EF04CFABDE8084003F049BE98
:10068C00602E002008B5012020F012FD024820F059
:10069C0085FC024B187008BDA4C10200682E002016
:1006AC0008B503F053FC012805D0034B1878BDE8BE
:1006BC00084020F057BC08BD682E002010B50C1E59
:1006CC0003D120F0C9FB002010BD02DB20F0D0FBD1
:1006DC00F9E70220F8E7B1F5000F02D20902FFF7A3
:1006EC00EDBF0220704700002DE9F0419846154BF4
:1006FC00154F1B8800264FF00C0CF4B29C4202D311
:10070C000220BDE8F0810CFB04F57C197D5D85426F
:10071C0005D165888D4202D12579954201D00136EB
:10072C00EBE701F0A3FA0028EAD04146A068FFF7F6
:10073C00C5FF0028E4D19DF8183063719DF81C307A
:10074C00A371DEE7601A0020481A002013B59DF84B
:10075C001040CDE9003413460022FFF7C5FF02B06C
:10076C0010BD07B500230093FFF7F0FF03B05DF851
:10077C0004FB00000E4BF0B51F880E4E00254FF009
:10078C000C0CEBB2BB4201D30220F0BD0CFB03F30B
:10079C00F418F35C834205D163888B4202D1237930
:1007AC00934201D00135ECE7A36800201870ECE708
:1007BC00601A0020481A00200022FFF7DBBF00005F
:1007CC002DE9F04F1E4693B0FF23022E804689463A
:1007DC0014461C9D9DF874A08DF81E3040F2BA8012
:1007EC002B785A072BD5042E40F2B48095F804B020
:1007FC005D4A002302EBC301DFB20979FF2907D060
:10080C0001330A2BF6D1209B002B40F0A780FF2749
:10081C00002308AA0DF11F0120798DF81F3002F07A
:10082C007AFA78B1BDF82C3023809DF81F0003F0C4
:10083C0069FD8DF81D00C8B113B0BDE8F08F95F8B7
:10084C0002B0D5E7207901F02DFAFF28059000F0D1
:10085C008380207903F06EFD8DF81D000028EBD10C
:10086C00059B424800EB0310438823806188238852
:10087C004FF6FF72B8F1000F08BF4A46CDE90012DF
:10088C0058465246002105F08DFC18B1E38843F020
:10089C002003E380209B0F950DF11D010DA8CDE9E0
:1008AC000D34ADF84090ADF842608DF844808DF871
:1008BC0045A002F068FA10B19DF81D00BCE728466F
:1008CC0005F08EFBA01D05F079FB224649464046FB
:1008DC0005F08AFD80B2B0422CD39DF87C30039396
:1008EC00BDF8783002930DF11E03CDE9005322467A
:1008FC00F3B24946404600F072FE8DF81D00209A76
:10090C009DF81D30D2B15BBB9DF81E20FF2A08D08C
:10091C00092F06D8144B03EBC7010A71209A43F830
:10092C0037209DF81D3013B911200DF0E7F903F0B5
:10093C00F0FCC1E774238DF81D30E0E7BA2BF0D141
:10094C00E388DB06EDD5002301208DF81D3003F084
:10095C0003FBE6E701206FE7A3206DE7B4206BE70C
:10096C00BA2BEDD0E3E700BF642000202C2F002031
:10097C000023054A10B51946FF24D018047199506C
:10098C000833502BF9D110BD6420002010B586B06F
:10099C000881089C04940024CDE902440124CDE98B
:1009AC00003413460A4601460320FFF709FF06B040
:1009BC0010BD13B500240094FFF7E8FF02B010BD82
:1009CC002DE9FF410F469046054688B381B37AB3B3
:1009DC0000266946F0B218F0A5FC044630B99DF823
:1009EC000030032B06D001360A2EF2D1204604B07B
:1009FC00BDE8F0819DF801202B799A42F3D1BDF826
:100A0C0002206B889A42EED19DF806309DF80500C5
:100A1C0000EB032080B29DF804306B7128814346B3
:100A2C003A462946FFF7C5FF0028DCD00446DDE72F
:100A3C000224DBE710B586B0089C04940024CDE9B1
:100A4C0002440124CDE9003413460A46014606202F
:100A5C00FFF7B6FE06B010BD13B500240094FFF7E7
:100A6C00E9FF02B010BDF0B502288BB005460E466A
:100A7C0014461F460AD106A9F0B218F053FC98B9D7
:100A8C009DF8193023719DF81C306371119B0493F0
:100A9C000022109B0192CDE90222009322463B4694
:100AAC0031462846FFF78CFE0BB0F0BD13B5002481
:100ABC000194049C0094FFF7D6FF02B010BD2DE901
:100ACC00F04306468BB00F4690469946002506A982
:100ADC00E8B218F027FC044630B99DF81830012B09
:100AEC0006D001350A2DF2D120460BB0BDE8F083BB
:100AFC009DF8192033799A42F3D1BDF81A207388E6
:100B0C009A42EED19DF81C307371CDE90309CDE901
:100B1C000100CDF800803B463246A9B20220FFF717
:100B2C004FFE0028DDD00446DEE7F0B587B007465F
:100B3C0014460E461622002168461D4603F02CFB77
:100B4C00ADF80C70ADF80A40F6B1082231460DF143
:100B5C00010003F0C5FABDF8143043F00203ADF800
:100B6C00143000238DF80030BDF83430ADF80E3061
:100B7C000F9ABDF83030BDF83810ADF8103068461B
:100B8C000EF00EFB07B0F0BD1DB1ADF812500C23EA
:100B9C00E8E74FF6FB739C428CBF082400248DF8C9
:100BAC000040E1E707B5094A0346108831B9084A05
:100BBC00084903B05DF804EB04F014B80091064A40
:100BCC00064904F00FF803B05DF804FB5621002031
:100BDC0089F9020092C502002DFA020099C50200A3
:100BEC007FB505460E4621F00BFD2A46044603460A
:100BFC000C49042003F0DAFF8CB986B101238DF87F
:100C0C000E3003230093224603AB36214FF6FC70C3
:100C1C008DF80C408DF80D5007F020F80446204656
:100C2C0004B070BD7BC50200FF2810B50C4604D182
:100C3C000420044903F0BAFFFE202146BDE8104011
:100C4C00FFF7CEBF3EC70200F8B51F460B8806461D
:100C5C000D461446002B63D14A88110448BF6378B3
:100C6C003049082003F0A2FF6B8848F2040293423B
:100C7C0032D00FD848F2010293423ED048F2020221
:100C8C00934242D0132B0ED1A2786378264903EB02
:100C9C00022223E048F20602934223D032D348F2D8
:100CAC002002934226D03B4622462946304600F08D
:100CBC00EEFD40B96A8848F221039A4203D161786B
:100CCC00304602F035F86B88B3F5004F02D9082096
:100CDC000DF034F8012024E0144A1549082003F0E3
:100CEC0065FFE0E7134A1249082003F07BFF2279E5
:100CFC001149F3E762781149F0E71149082003F034
:100D0C0055FFD0E722790F49E8E70F4A0849082038
:100D1C0003F068FFA27863780C4903EB0222DDE74D
:100D2C000020F8BDA6C502001CC60200CBC50200FF
:100D3C00D2C50200E3C50200E9C50200F7C50200F6
:100D4C0033C602004DC602006FC6020074C6020014
:100D5C002DE9F04788B00C4692469946BDF84050B4
:100D6C00119E804626F012FB628823881D49009252
:100D7C0007462A46022003F019FF8DF80880CDE9BA
:100D8C000346ADF81450ADF816708DF818A08DF818
:100D9C00199000F099FA8DF81A0000F097FA8DF876
:100DAC001B001BF08AFB8DF81C0002A801F0E9FF68
:100DBC00A8B92B4632462146384604F073FD70B96B
:100DCC002B46324621463846FFF73EFF38B9CDE96F
:100DDC0000702B4632464146204605F009FA08B011
:100DEC00BDE8F087B4C402002DE9F04F85B0804611
:100DFC0089461446BDF838600F9D9DF840B01F46DB
:100E0C00002B2CD0434A4449042003F0EBFE2388EA
:100E1C00002B70D040F2091293426ED03F4A4049E9
:100E2C00B3F5827F18BF0A466188009101963D494F
:100E3C00042003F0D7FE23886BB1022E0BD92B783C
:100E4C0039493A4A13F0010F18BF0A46AB783849B2
:100E5C00042003F0C7FE3749042003F0A7FE364AEE
:100E6C000023114602EBC3000079584547D152F8D4
:100E7C0033A0002301EBC3021079584545D1FF2064
:100E8C001071002241F8332047B9238833B9B4F9E3
:100E9C000230002B02DB08200CF030FF01200CF09C
:100EAC004DFF9DB12878C30710D510F0040004D075
:100EBC0032460121284603F0E6F9CDE90170009590
:100ECC00334622464946404601F0CEF8BAF1000FAF
:100EDC0006D0CDE900573346224649464046D04716
:100EEC003346224649464046CDE90E5705B0BDE88B
:100EFC00F04F01F019BF114A96E7114A94E70133FC
:100F0C000A2BAFD14FF0000AB3E701330A2BB1D152
:100F1C00BAE700BF00C5020008C50200EEC402001B
:100F2C0055C5020012C50200F1C40200F9C402004A
:100F3C0041C50200ABE2020064200020E7C40200BD
:100F4C00EBC40200962813B5044635D02ED8912850
:100F5C003DD0942830D0902842D100F0AFF9244BEA
:100F6C000090244A2449042003F020FEBC2C29D1F3
:100F7C002249042003F01AFE01F00FFF01F00EFFCE
:100F8C0001F00CFF20460CF0D3FD204610F046FC7F
:100F9C0020460EF0D1FC2046FFF7B6FA30B31849C4
:100FAC00042002B0BDE8104003F000BEAF2807D803
:100FBC00AB280AD2982813D1124B0E4A124909E0D9
:100FCC00BC28C9E728F0CCFBDAE79128F4D1084B10
:100FDC00084A0E49042003F0E9FD04F030FFD1E784
:100FEC0022460B49022003F0E1FDCBE702B010BD15
:100FFC0085C602008EC6020095C60200A2C602007B
:10100C00F2C60200C9C60200D1C60200C0C6020068
:10101C00DAC6020013B50F4C002003F073F92368F5
:10102C006BB101A800F038FB48B923681A789DF819
:10103C0004309A4203D0012A07D1022B05D1032395
:10104C0001A8ADF8043022F093F903F062F902B074
:10105C0010BD00BF5021002010B5044603F057F915
:10106C00204601F0A4FEBDE8104003F052B9000088
:10107C000D4B1B6837B505469BB11C780289C37AAA
:10108C000A490092012C0A4A4FF0010008BF0224C1
:10109C0003F08CFD2946204603B0BDE8304022F019
:1010AC0003B9702003B030BD5021002022C70200CC
:1010BC004EC1020010B5044600F0F8F8631E04F1AE
:1010CC000F02002113F8010FFF2808BF197093427B
:1010DC00F8D10023237410BD7FB504AB03E90300E2
:1010EC0000239DF80D509DF80E6016491C46D8B291
:1010FC0001EBC0025268EAB99DF80C1000919DF802
:10110C000B309DF80A201049042003F06BFD25B12B
:10111C002A460E49042003F065FD0D4ABDF808303F
:10112C000C49002C18BF2246042004B0BDE87040C6
:10113C0003F03CBD11F830000133B04208BF144637
:10114C00D5E700BF7CC7020058C5020069C5020084
:10115C0054C502006DC50200FFF7E4B910B50BF0E1
:10116C0042FB012300224FF4E13120200EF066FEF9
:10117C0007F05CFC044608F04BF922460346124982
:10118C00012003F013FD07F057FC044608F04EF95C
:10119C00224603460D49012003F008FD07F046FCEA
:1011AC00012303FA00F040F2A17318420BD0084C53
:1011BC00207807F047FC207807F000FD2078BDE888
:1011CC00104007F001BE10BDBBC80200D1C8020020
:1011DC00B11A002037B50022114601A801F0A1FD7B
:1011EC0000284DD11FF05EFC0346002843D0264951
:1011FC00264A012003F0DAFCAA21254807F0FCF965
:10120C0003F076F8FFF7B4FB00F066FB00F026FB6A
:10121C000221084604F02EF8FFF7FCFE02F0FEF85F
:10122C001C4B1D4C1D4D41F202021A801C4A5223CC
:10123C0013801C4A4FF4004013801BF075FF07F01D
:10124C00B5FF1FF0D9FC02F081FE012801D000F09F
:10125C000EFB0EF049FEFFF723FA2021002002F0CE
:10126C000FFB28B1224629464FF6FF7003F0BAFC5B
:10127C0003F051F8E3E70C49022003F097FCBFE7B9
:10128C00019803B030BD00BF18C8020000C50200B1
:10129C0029C80200D41F0020ABC80200B7C8020046
:1012AC00D61F0020D81F0020A1C80200024910231D
:1012BC007F22098807F0C2BE6C0A03001FF062BDD2
:1012CC001FF06CBD1FF030BB26F060BB1FB568462D
:1012DC0026F06AF8C8B902A927F090FF08226946DF
:1012EC000DEB020002F05FFF10B9002004B010BD3E
:1012FC0002A9012027F082FF082269460DEB0200AB
:10130C0002F051FF90B90120F0E726F03FF84FF6BC
:10131C00FF739842044609D0002027F087FF8442CF
:10132C00E3D0012027F082FF8442ECD0FF20DDE7E0
:10133C0038B5054602F0FEFF044698B94FF4A853A1
:10134C002A460949082003F031FC4FF4A8512846DD
:10135C0006F0F6FB054902460446082003F026FC7D
:10136C0002F0D7FF204638BDF1C80200FDC80200CC
:10137C007FB5054602F0CBFF1FF004FD40B16B8832
:10138C00B3F5006F04D1681D01F0D0FC044616E0E3
:10139C00284601F007FDD8B90446E6B26946304646
:1013AC0017F0C0FF80B99DF800306BB92946304664
:1013BC0018F03AF80028E9D075280BD08C2402F0EC
:1013CC00A8FF204604B070BD01340A2CE5D1F5E726
:1013DC008D24F4E78B24F2E738B5054602F097FF2D
:1013EC00284601F0DDFC98B9284617F0EBFF68B1F0
:1013FC0075280CBF8B24882423462A4605490820CF
:10140C0003F0D4FB02F085FF204638BD0446F3E719
:10141C008D24F7E707C9020037B502A9FF2301F8AD
:10142C00013D044601F073FC18B19DF8070003B0B0
:10143C0030BD094B03EB04131D7B1BF040F88542B8
:10144C0001D0FF20F3E7204600F08EFA0028F8D0F8
:10145C00204600F0E9FCEAE72C2F00202DE9F041B2
:10146C0007460D4601F055FC0646F0B9384600F02B
:10147C0019FCFF2819D00E4C04EB001494F80C80C6
:10148C001BF01DF8804510D163882B80A3886B80DE
:10149C00A3792B710121384600F0CCFC31466871E0
:1014AC00384600F0C7FC0126A8713046BDE8F08133
:1014BC002C2F0020F8B504460E46154600F0F2FB22
:1014CC00FF2802D14FF6FF70F8BD0B4B03EB001059
:1014DC00077B1AF0F4FF8742F4D146B90122294662
:1014EC00204600F0CDFC0028ECD00088ECE7012E63
:1014FC00E8D10022F3E700BF2C2F002010B50446E2
:10150C0002F005FF2046FFF71DFDBDE8104002F07C
:10151C0000BF000037B50C4B1B681C5C94420D4699
:10152C000AD900922346094A0949042003F03EFBDC
:10153C000024204603B030BD002201460092234611
:10154C0028461FF0E7FFF4E7141B002000C502003B
:10155C0000C80200F0B599B0144603AD0F4606461C
:10156C0002F0D5FE204652222946FFF7D3FF84B263
:10157C008CB10DF10A0025F0F9FE0DF10B0025F0F0
:10158C00FDFE9DF90B309DF80A20CDE9004539464A
:10159C003046FFF7DDFB02F0BCFE19B0F0BD2DE9C3
:1015AC00F0419AB01D4605AC0F469046064602F037
:1015BC00AEFE522221462846FFF7ACFF50B180B256
:1015CC000090CDE901459DF88030424639463046C1
:1015DC00FFF70AFC02F09DFE1AB0BDE8F0812DE980
:1015EC00F74307460E460A98BDF830809DF83490B4
:1015FC00194615461FF0B6FFFF2804463AD00B9B40
:10160C001870062F34D8DFE807F0040404121929E7
:10161C00220003462A463146384626F01DF9054677
:10162C0020461FF043FE284603B0BDE8F0830C2291
:10163C0003461146284626F0E1F8F0E7EA7A03461D
:10164C00CDE900891146284626F09AF8E7E70346CB
:10165C000C222946304626F039F8E0E70190EB7A67
:10166C0000934A462B463146404626F053F8D6E7BF
:10167C000225D5E71825D6E70822014902F030BD2E
:10168C00F13F002010B5044608461FF061F92046D2
:10169C00BDE8104021F032B921F030B90520704777
:1016AC00002070470A207047014B1878704700BF24
:1016BC002C1B00204B207047024B18685968FFF711
:1016CC000BBD00BFAA3F030013B5044602F01FFE7A
:1016DC000DF1060025F04AFE0DF1070025F04EFE37
:1016EC009DF907209DF8061020460CF07BFF30B9C1
:1016FC009DF907209DF8061020460EF0F7FA02F02F
:10170C0008FE02B010BD38B504460D4602F0FFFDD0
:10171C00294620460DF0B0F818B9294620460EF09F
:10172C00F5FABDE8384002F0F4BD38B504460D4674
:10173C0002F0EDFD294620460CF0BEFF18B92946F3
:10174C0020460EF0C1FABDE8384002F0E2BD38B5D3
:10175C0004460D4602F0DBFD294620460CF0D4FF72
:10176C0018B92946204601F029FBBDE8384002F0A3
:10177C00D0BD704700F08FB8704700002DE9F341E1
:10178C00224B01931646044640B13AB1002301AAFC
:10179C009D5C8D4233D00133042BF9D1022002B071
:1017AC00BDE8F081E35C93FAA3F30146180E02F056
:1017BC00BFFB434603F10108DBB2BB42F2DBC2B212
:1017CC0092FAA2F2C0F30F2393FAA3F3100E1B0E9E
:1017DC0003EB00236219DB439BB212F8020CD9B263
:1017EC00884211D112F8012CB2EB132F0CD13246D6
:1017FC002146284602B0BDE8F04119F0F1BE0023A5
:10180C004FF6FF708F1ED5E7BD20C8E7080A0E12F1
:10181C002DE9F041984686B00F4B1546064603A8B5
:10182C000F461C7818F00CF915F0FD0F12D030B9DA
:10183C00BDF80C309B0702D5032D08BF032430469E
:10184C0000942B464246394601F0B6FA204606B0C3
:10185C00BDE8F0810324F2E7B420002008B504F0C1
:10186C00BFFA01F05DFABDE808400CF02DBA08B5DE
:10187C0001F059FA0CF0BAFB0DF0F2F80DF0EAF9A0
:10188C00BDE8084004F0DABA704701F078BA01F00C
:10189C007CBA0020704738B504460D460FF024F88A
:1018AC0029462046BDE8384001F08BBA01F06FBAEA
:1018BC0001F07ABA10B5074A0123312B194601D130
:1018CC00002006E00233D41814F8034C8442F4D1FF
:1018DC00505C10BD1DC90200F0B587B040F2012369
:1018EC00194A1A49ADF80030194B1A4D0220CDE9AE
:1018FC0004230870002301221749ADF80430ADF819
:10190C000820ADF80C300DF1100E0DF1140C01AFD8
:10191C0002AE03AC10461DF803200A703EF81320EB
:10192C004A803CF813208A80DA5D8A71F25C487335
:10193C0005EBC2028A601A5D0A7310310BB107B055
:10194C00F0BD0123E7E700BF04010401B52000202E
:10195C000401100820CC02002C2F0020014B187819
:10196C00704700BFB5200020034B03EB0010407BF9
:10197C0000F00100704700BF2C2F002041380328D5
:10198C008CBF002001207047413801288CBF0020FB
:10199C0001207047433801288CBF0020012070477C
:1019AC0000207047002070470388B3F57C4F01D3AB
:1019BC00FFF7F8BF0846FFF7F3BF10B54A88048855
:1019CC00A2420DD1037B0C79234009D0B2F57C4F98
:1019DC0008D3FFF7E7FF0B891B1A5842584110BD7B
:1019EC000020FCE70120FAE738B50D88D488A54221
:1019FC000AD10388B3F57C4F08D2FFF7D5FF1389C2
:101A0C001B1A5842584138BD0020FCE70120FAE768
:101A1C002DE9F04F8BB04FF0000A01939DF8503038
:101A2C000593714BDFF8D0911B78049180461546D5
:101A3C0008935746089A5FFA8AF39A4201D886208F
:101A4C0063E099F800300293D9F808300393029AB6
:101A5C0098F80030934240F0BF8099F80D30D807C9
:101A6C0009D5039B1B7907934FF0000B079A5FFA7C
:101A7C008BF39A4204D80AF1010A09F11009D9E74B
:101A8C00039B1E68142303FB0B6641463046FFF78D
:101A9C0094FF002800F09C8033890693002306995C
:101AAC009AB2914202D80BF1010BDFE774680993EB
:101ABC000C2202FB0344214642463046FFF794FFBA
:101ACC002279099B00287BD0049B03B11C609106F2
:101ADC001ED4464809E01A79920642BFD8783F18BE
:101AEC00BFB20C339C42F6D84148059B074493B1D6
:101AFC0021463046FFF758FF2388B8F802100246FB
:101B0C00029801F0E5F860BB7E200BB0BDE8F08FC9
:101B1C000027384BE6E7002D35D021463046FFF73D
:101B2C0043FF2388B8F802100246029801F0CEF861
:101B3C000028E9D0DFF8C49028462379DB0615D5B8
:101B4C0021463046FFF730FF98F80060B8F80210D5
:101B5C001495034622463046CC460BB0BDE8F04FF8
:101B6C0060473846DFF898902F46E6E7019AA3784D
:101B7C005AB9E278A3F14101012908D8013AD2B24D
:101B8C00394604F05DFC0020BFE7019AF2E7433BC5
:101B9C00012B05D8023A92B2394604F06BFCF2E7FD
:101BAC00059B2BB9019B1BB1E37801998B4218D88B
:101BBC00394617B902F0F0FAE5E702F091FAE2E7DC
:101BCC0012F0300F02BFE0783F18BFB2013366E766
:101BDC0070890744BFB266E7039BD8880744BFB23D
:101BEC0049E7892091E700BFB52000204C2F002049
:101BFC006C2E002058C902002C2F00200B2D000049
:101C0C000F2D00002DE9F0410779064600254FF015
:101C1C001408E8B2874201D800241AE008FB05F04A
:101C2C00D6F800C00CEB00043CF8000088421AD136
:101C3C0032B1802A10D194F90CC0BCF1000F12DA29
:101C4C00B0F57C4F05D32046FFF7ACFE984200D090
:101C5C004BB92046BDE8F081402A04D194F80CC061
:101C6C001CF0400FECD10135D3E7000030B50B4B25
:101C7C000B4A1C780023D9B2A14201D3002030BDFD
:101C8C001946013302EB031515F8105C8542F2D1AD
:101C9C0002EB0112507B00F00100F0E7B5200020B0
:101CAC002C2F002070B50A4B0A491D780023DAB29C
:101CBC00AA4202D3FF22104670BD1C016618645C58
:101CCC00844202D1747BE407F5D40133EFE700BF03
:101CDC00B52000202C2F00202DE9F0410D46164692
:101CEC001F46FFF7DFFFFF280AD0074C04EB00105C
:101CFC003B46324629468068BDE8F041FFF782BF7B
:101D0C000020BDE8F08100BF2C2F002008B5134641
:101D1C000022FFF7E1FF003018BF012008BD08B515
:101D2C0013464022FFF7D8FF003018BF012008BD32
:101D3C0008B513468022FFF7CFFF003018BF0120F3
:101D4C0008BD08B540220023FFF7C6FF003018BFBE
:101D5C00012008BD08B580220023FFF7BDFF00302D
:101D6C0018BF012008BD000030B5094B094C19788B
:101D7C000023DAB28A4201D3FF2206E0013304EBDE
:101D8C00031515F8105C8542F3D1104630BD00BF29
:101D9C00B52000202C2F00202DE9F0410D461646D1
:101DAC001F46FFF7E1FF054C04EB00103B463246A3
:101DBC0029468068BDE8F041FFF724BF2C2F002096
:101DCC002DE9F84F0746884691469A46FFF784FF5F
:101DDC00E0B10F4BDFF83CB01E7800252C46EBB27F
:101DEC00B34202D32046BDE8F88F01350BEB051347
:101DFC0013F8100C8742F5D053464A464146FFF77C
:101E0C00CBFF002818BF0134E4B2E8E7FF24E9E770
:101E1C00B52000202C2F002013464022FFF7D0BF06
:101E2C000022FFF7F9BF0000014B0001185C70475E
:101E3C002C2F002070B50D46FFF734FFFF2818D06B
:101E4C000E4B03EB001082689AB1002311791846EF
:101E5C001426DCB2A14200D870BD146806FB034402
:101E6C00247B45B114F0400F1CBF0130C0B20133CC
:101E7C00EFE70020F0E714F0800FF5E72C2F00209F
:101E8C002DE9F0410F469046FFF70CFFFF280BD0D1
:101E9C00104B03EB00100023856829791C464FF08A
:101EAC00140CDAB2914202D80020BDE8F081286807
:101EBC000CFB0300067BB8F1000F08D016F0400FA6
:101ECC0003D0BC42F1D00134E4B20133E9E716F09F
:101EDC00800FF5E72C2F00202DE9F04F89B0074635
:101EEC001AF0EBFA3D4B1B780293824600244FF01C
:101EFC000C0B029B9C422ED2FF2F05D03846FFF7CD
:101F0C00D1FEFF28044626D0FF2F354E4FEA04138E
:101F1C0060D1F218127B52455CD00134E4B2E8E790
:101F2C001B68142202FB05352B89B3F5967F01D96A
:101F3C0007F03CF94FF000092A891FFA89F39A42FD
:101F4C000CD808F10108B3681A795FFA88F5AA422F
:101F5C00E6D8FF2FE1D009B0BDE8F08F1FFA89F168
:101F6C0068680BFB01F14218137913F0100F29D19B
:101F7C0096F800C08DF814C0B5F800C0ADF816C0C6
:101F8C0013F0400F0CBF4FF0400C4FF0800C8DF84D
:101F9C0018C0415AADF81A10284611460393FFF7A2
:101FAC0003FD039BADF81C005B07D1780DD502290E
:101FBC00926800D91268012300930023194605A8E2
:101FCC00FFF726FD09F10109B6E7022994BF083293
:101FDC009268F0E74FF000081E44B4E7B5200020EB
:101FEC002C2F00200021FFF777BF10B501210446EC
:101FFC00FFF772FF2046BDE81040FFF745BC704765
:10200C0010B5047B14EA010310D0002201238B428B
:10201C0003D3036953F8220010BD1C4218BF0132D0
:10202C004FEA430318BFD2B2DBB2F0E71846F3E72E
:10203C00F8B516461F469DF81820BDF81C3005460D
:10204C00FFF74AFE78B10421FFF7DAFF044650B1DE
:10205C00284602F06FF93A4631462846A047BDE8BB
:10206C00F84002F056B9F8BD2DE9F74F0C9D9DF8DC
:10207C0034B01F4681468A46BDF83830144612B338
:10208C000DB307B392F804802A78618812F0080F18
:10209C0014BF402280224046FFF71EFE98B1082153
:1020AC00FFF7AEFF064670B1404602F043F9CDE9AA
:1020BC00005B3B46224651464846B04703B0BDE85C
:1020CC00F04F02F026B903B0BDE8F08FF8B5BDF8BB
:1020DC00185017461A462B460446FFF7FDFDE0B193
:1020EC0075B90221FFF78CFF0546B0B1204602F00E
:1020FC0021F939462046A847BDE8F84002F009B955
:10210C001021FFF77DFF064638B1204602F012F988
:10211C002A4639462046B047EEE7F8BD73B5BDF800
:10212C00184016461A4623460546FFF7D5FDB8B1AA
:10213C00C4B92021FFF764FF044670B1284602F0B1
:10214C00F9F8099B00939DF81C209DF8203031462E
:10215C002846A047044602F0DCF8204602B070BDC9
:10216C008624FAE70024F8E72DE9F0418668044656
:10217C00007802F0DFF8002514273279EBB29A428E
:10218C0003D8BDE8F04102F0C4B87B433268207834
:10219C00D15A02EB030800F0A1FD01214046FFF7E4
:1021AC002FFF034608B1207898470135E5E700007A
:1021BC0070B5084D084E00242B78E0B2834200D84D
:1021CC0070BD06EB0010437BDB0701D5FFF7CCFF9E
:1021DC000134F1E7B52000202C2F00202DE9F0412F
:1021EC001E4B06461E480C4619780023DAB28A426A
:1021FC0003D300242046BDE8F0815A1C00EB0215E5
:10220C0015F8105CB54201D01346EFE700EB031054
:10221C00437B03F001022CB143F00103437342B141
:10222C000124E7E74473002AFAD005464FF014085E
:10223C000DE0FFF799FFDDE71B6808FB04F41A19A2
:10224C00195B127B3046D209FEF794FA3C46AB6818
:10225C001A79671CE4B2A242EED8E1E7B52000205F
:10226C002C2F0020002070472DE9F74F4C7D019357
:10227C00BDF830A09DF838B070B394B3012C18BFE2
:10228C0004249DF83C70DFF8888000263546BFB2E8
:10229C0036F80800904218D108EB060090F803E0DD
:1022AC001EEA040F11D090F80290D9450DD31EF000
:1022BC00100F91F80FC016D0BCF1000F05D0FFF72E
:1022CC00D1FFB1F810C0844510D00436BC2EDFD13C
:1022DC00012003B0BDE8F08F002C14BF04240824A7
:1022EC00CFE70224CDE7BCF1000FEED1AF420CD00A
:1022FC00AA450AD9019B0D9803F8059000880D9BFF
:10230C00013001351880ADB2DFE70020E1E700BFF6
:10231C0064CB02002DE9F04F89B01D46BDF8484052
:10232C009DF850300193934623462A4607460E46A5
:10233C00FFF7D2FC8DF81470ADF816608DF81850BC
:10234C00ADF81AB0ADF81C40814618B9012009B09F
:10235C00BDE8F08F05A9FFF730FB0028F6D09DF8FB
:10236C004C3000259BB22E462F462C46029336E06D
:10237C000C231FFA85F8B9F8002003FB08F8D9F8EC
:10238C000430B2F57C4F03EB080A1AD333F808007B
:10239C0058452ED3029BA3422DD901F049FF9AF840
:1023AC00020001F031FF019B43B19AF8043013F0A5
:1023BC00010F0CBF0520072001F026FF0134A4B249
:1023CC0019E033F80820ADF81A20514605AA484602
:1023DC000393FFF709FB039B0028D7D10135B9F80C
:1023EC000820ABB29A42C3D83C44A31B5842584174
:1023FC00ADE70137BFB20136B6B2EFE72DE9F04FCA
:10240C008FB098469DF8703006930023BDF860900D
:10241C008DF82C00ADF82E10ADF832200093054647
:10242C000E46174608A91A460BA80893199C9DF846
:10243C0068B09DF86CA08DF83080ADF83490FFF743
:10244C00E7FA089B002B00F09880BAF1000F07D137
:10245C009A785A4540F094801A79D10740F19380CC
:10246C001A79520735D59A685168926809910A927F
:10247C00987804F07BF8089B059093F803A0BAF1C8
:10248C00020F17D803465246214609A804F013F848
:10249C00059B0790524621460AA804F00CF8079BAE
:1024AC00012B01D0013014D14FF0870A50460FB0E8
:1024BC00BDE8F08F059B09985246214603F0FBFFBF
:1024CC000128F1D0059B0A985246214603F0F3FFF0
:1024DC00E8E7069B002B59D1089B0394DB78CDF8D9
:1024EC000090CDE901B33A4643463146284600F008
:1024FC0042FC82460028D9D1089B0394DB78CDF8A6
:10250C000090CDE901B33A46434631462846FFF7E1
:10251C0005FE82460028C9D101230093069B224662
:10252C0019460BA8FFF774FA82460028BED1089B07
:10253C00324629462046FFF762FD43463A4631466D
:10254C002846CDE901B4CDF8009000F02FFC089B93
:10255C000394DB78CDF80090CDE901B33A464346BD
:10256C003146284600F006FCCDF8009043463A462A
:10257C0031462846FFF7AAFD98E74FF0860A95E703
:10258C004FF08D0A92E74FF0880A8FE74FF0000A60
:10259C008CE72DE9F04786B007460F9D9DF840600B
:1025AC00BDF838400094CDE90156884691469A46CC
:1025BC0000F08AFB98B102280ED84FF00003049368
:1025CC0008BF0123CDE90263CDE9004553464A46D5
:1025DC0041463846FFF712FF06B0BDE8F0870120F0
:1025EC00FAE730B587B000240125CDE903549DF8F6
:1025FC002C5002950A9DCDE90045FFF7FFFE07B070
:10260C0030BD30B587B000240125CDE903549DF8C9
:10261C0028500094CDE901354023FFF7EFFE07B0B9
:10262C0030BD10B586B04FF0010C0024CDE9034C41
:10263C009DF828400294099C0194BDF82040009418
:10264C00FFF7DCFE06B010BD30B587B000258DF865
:10265C001030BDF828308DF80C00ADF80E10ADF828
:10266C001220ADF814300095BDF830300B9A0D9C4B
:10267C00029502A903A8FFF7CBF918B914B1029B74
:10268C009B78237007B030BD1FB5089C03949DF850
:10269C001C400294069C019400240094FFF7D4FF84
:1026AC0004B010BD2DE9F04FDFF8CCB099B04FF06D
:1026BC000008FFF753F95FFA88F5A84202D819B061
:1026CC00BDE8F08F2D010BEB05034FF000090493CF
:1026DC000BEB05035FFA89F49B681A79A24202D8C6
:1026EC0008F10108E5E71B68142202FB04340026FC
:1026FC002289B3B29A4202D809F10109E8E70C2306
:10270C001FFA86FA03FB0AFA6368059303EB0A07C0
:10271C0006F04CFD39462046FFF746F9049B21880C
:10272C0093F800C0059B33F80A203B794FF0000E5C
:10273C0013F0400F0DF11C0A4FF04103CDE9023E9E
:10274C00CDE9000A14BF802340236046FFF77CFFCD
:10275C00862806D0B878FFF717F920B1504601F05B
:10276C00B7FD0136C4E7B878FFF714F90028F8D0A4
:10277C00504601F0B2FDF4E72C2F0020F0B597B0D5
:10278C001646BDF87470042F48D90DF11304039448
:10279C004124029405ADBDF8704000940195FFF7FB
:1027AC0053FF0446A0BB9DF81300A0F14103012B7D
:1027BC0021D8284601F08CFD0130C4B2E31CBB4289
:1027CC002CDA304601F034FD154E002001F01CFDD2
:1027DC009DF8130001F018FD33881A19512A1DDCDD
:1027EC001048A4B222461844294601F079FC3088DE
:1027FC000444348012E0A0F14303012B04D8284692
:10280C0001F06BFD0230D8E7FFF754F80446D5E72A
:10281C00304601F00DFD204601F0F6FC17B0F0BD7E
:10282C009C2F0020AC2F002038B5C37B05460BB184
:10283C00832038BDC47C2CB905F0B6FA20B9EB7BEB
:10284C00002BF5D18120F4E72046F2E738B5C37BA5
:10285C0005460BB1832038BDC47C6CB9017D8289DF
:10286C008B1C9A420AD3806801F00DFD0BF048FED8
:10287C0030B9EB7B002BEDD18120ECE78020EAE72F
:10288C002046E8E7C37B10B504460BB1832010BD8E
:10289C00C37C1BB1012B10D08120F8E7017D82890C
:1028AC008B1C9A420CD3806801F0EDFC0CF04EF9B5
:1028BC0040B9E37B002BE9D1EEE70CF05FF9F7E7C9
:1028CC008020E4E70020E2E72DE9F34790F80FA021
:1028DC000446BAF1000F40F03A81C37C042B00F09F
:1028EC00C6800AD8012B67D047D3022B00F09D80FD
:1028FC00032B00F0AD80812045E0402B00F0CD8013
:10290C0023D8062BF7D1037D8289591C8A4239D3EF
:10291C009DB2A91C8A4205F1010733D3881C82425F
:10292C0030D3A068C65CC75D01F0ADFC0246002E3A
:10293C0040F0B080A1682B1D0535CB5C0D44009593
:10294C00394630460DF02EFA2DE0412B00F0B980BF
:10295C00422BD0D1037D8289191D8A4212D39DB29C
:10296C008068691CC65C01F08EFC0335A3680146C7
:10297C005A5D30460EF0B6FF15E0037D8289191DB5
:10298C008A4203D2802002B0BDE8F0879DB28068F5
:10299C00691CC65C01F077FC0335A36801465A5DDF
:1029AC0030460DF0E3F9002840F0D380E37B002B98
:1029BC0014BF83208120E6E7037D8289591C8A425B
:1029CC00E0D39DB2691C881C8242DBD3A068C65C34
:1029DC0001F059FCA289291D8A42074605F103031F
:1029EC00D0D3A06810F80380DEB901F04CFC06359A
:1029FC002946A2898146A06801F04CFC8246A06859
:102A0C00284401F065FC01300544A06810FA85F5F6
:102A1C00CDE900A54B464246394630460DF0FCF94F
:102A2C00C1E74FF6FF795546F2E7037D8289191D00
:102A3C008A42A7D39DB28068691CC65C01F023FC56
:102A4C000335A36801465A5D30460DF099F9AAE7A3
:102A5C00017D8289CB1C9A4294D38068455C0131FC
:102A6C0001F011FC014628460DF090F99BE7037D1F
:102A7C008289191D8A4285D39DB28068691CC65C07
:102A8C0001F001FC0335A36801465A5D30460DF098
:102A9C0083F988E7FF23002551E7037D8289191DFF
:102AAC008A42FFF46FAF9DB28068691CC65C01F06E
:102ABC00EAFB0335A36801465A5D30460EF0F6FE7C
:102ACC0071E7037D8289591C8A42FFF45BAF9DB28A
:102ADC00691C881C8242FFF455AFA068C65C01F0EB
:102AEC00D2FBA289291D8A42074605F10303FFF494
:102AFC0049AF881C8242FFF445AFA06810F80380F0
:102B0C0001F0C1FB8146A068B4F80CA0063528443E
:102B1C0001F0DEFB284401308245FFF433AFA2897B
:102B2C00A068294601F0B6FB8246A068284401F053
:102B3C00CFFB01300544A06810FA85F5CDE900A55E
:102B4C004B464246394630460EF0BAFE2BE7832000
:102B5C0019E7002017E7C37B2DE9F74304461BB1A7
:102B6C00832003B0BDE8F083C37C412B33D0422BD0
:102B7C0042D0402B2DD1037D828903F110018A4272
:102B8C004BD39DB2806805F10801C61801F07BFBA0
:102B9C0005F10A030746A068A28910F8038005F125
:102BAC000B0101F070FB05F10D018146A289A068B3
:102BBC0001F069FB0F35A3685B5D4246CDE900036C
:102BCC0039464B4630460EF093FE40BBE37B002B60
:102BDC00C6D18120C5E7057D8289EB1C9A421CD3A6
:102BEC00AAB28068961C511CD31C0344825D415CC4
:102BFC00405D0EF083FEE8E7057D8289EB1C9A426E
:102C0C000BD3AAB28068961C511CD31C0344825D62
:102C1C00415C405D0EF090FED7E78020A1E70020DC
:102C2C009FE738B5C37B002B437D14BF8325C32599
:102C3C00012B04462ED10368028A59885879FFF774
:102C4C0077F838B323685B88062B0ED005D8032B96
:102C5C0011D0052B14D0284638BDB3F5407F04D0D5
:102C6C00B3F5805F11D0082BF5D1E37B002B14BF9B
:102C7C0083258125EFE72046BDE83840FFF7E6BD08
:102C8C002046BDE83840FFF71FBE2046BDE838405F
:102C9C00FFF761BF637D002BDDD12368228A598841
:102CAC005879FFF73CF80028D5D023685B8833B1FE
:102CBC00032BD0D12046BDE83840FFF7E3BD2046BA
:102CCC00BDE83840FFF7B0BD0120704701207047C8
:102CDC00012070477047B52070477047704700203F
:102CEC00704700207047002070470020704700207C
:102CFC00704700207047002070470020704701206B
:102D0C00704701207047B5207047002070470020A5
:102D1C0070470020704700207047704700207047B4
:102D2C007047002070477047002070478420704720
:102D3C0070470020704770477047002070477047FD
:102D4C0000207047012070477047704770477047EC
:102D5C00012070470020704700207047034B1B6810
:102D6C001878012808BF0220704700BF50210020AE
:102D7C007047704770470020704700207047002054
:102D8C0070470020704700207047002070470020DB
:102D9C00704700207047002070477047B52070477F
:102DAC000020704700207047002070477047704724
:102DBC0070477047B52070477047704770470020C8
:102DCC007047704701220521104603F01BBD0422F9
:102DDC000521012003F016BD03220521012003F07B
:102DEC0011BD02220521012003F00CBD0522114664
:102DFC00012003F007BD06220521012003F002BDCE
:102E0C0041220521012003F0FDBC402205210120B7
:102E1C0003F0F8BC42220521012003F0F3BC002290
:102E2C000521012003F0EEBC02220621012003F053
:102E3C00E9BC42220621012003F0E4BC4122062118
:102E4C00012003F0DFBC01220621104603F0DABC9E
:102E5C0040220621012003F0D5BC002206210120CE
:102E6C0003F0D0BC03220821012003F0CBBC0222CA
:102E7C000821012003F0C6BC07220821012003F021
:102E8C00C1BC06220821012003F0BCBC042208218D
:102E9C00012003F0B7BC05220821012003F0B2BCCD
:102EAC0000220821012003F0ADBC012208211046AC
:102EBC0003F0A8BC40220321012003F0A3BC012293
:102ECC000321104603F09EBC00220321012003F0D5
:102EDC0099BC02220321012003F094BC47224FF439
:102EEC004071012003F08EBC05224FF4407101208B
:102EFC0003F088BC02224FF44071012003F082BC25
:102F0C004C224FF44071012003F07CBC09224FF499
:102F1C004071012003F076BC03224FF44071012074
:102F2C0003F070BC06224FF44071012003F06ABC20
:102F3C0000224FF44071012003F064BC0A224FF4CC
:102F4C004071012003F05EBC07224FF44071012058
:102F5C0003F058BC04224FF44071012003F052BC22
:102F6C0001224FF44071104603F04CBC4B224FF43D
:102F7C004071012003F046BC08224FF4407101203F
:102F8C0003F040BC44224FF44071012003F03ABCE2
:102F9C0042224FF44071012003F034BC43224FF421
:102FAC004071012003F02EBC40224FF440710120EF
:102FBC0003F028BC41224FF44071012003F022BCE5
:102FCC0001220021092003F01DBC000002292DE97B
:102FDC00F84F05468A4602D963B1042908D85B49E3
:102FEC00022001F0E3FD4FF0000B5846BDE8F88FCE
:102FFC0042F004020C9C2A70002B3ED06B701B0A12
:10300C00AB70032702F0BEFF07F1020BE855013746
:10301C009DF82830EB554FF000095FFA89F30B9AB5
:10302C00D65C002EE1D0732E50D8A6F14C01C9B25B
:10303C00162904F10408276829D8454B23FA01F115
:10304C00C94311F001012CD160684C2E04F1080821
:10305C0084B214D14FF6FF7120468C4214BF02216A
:10306C0000210BEB04020A4492455EDA62183949DE
:10307C003346022001F09AFDB5E70127C2E7532E33
:10308C000DD1C0B2B0F1FF0118BF0121E9E76C2EE0
:10309C0007D1384601F021F9023084B200210846EC
:1030AC00DFE7732E04D1384601F012F90130F4E752
:1030BC00A6F13004E2B2092A01D8A4B2EEE7A6F1D7
:1030CC004102062A0AD8A6F13704F6E7752E0BD072
:1030DC00762E10D0782E10D0772E10D032461E4976
:1030EC00022001F063FD7EE7012104F10408206851
:1030FC0000242746B5E70221F7E70321F5E7042171
:10310C00F3E70CF1010E013A05F80C00D2B2000AFB
:10311C001FFA8EFC002AF4D18B441FFA8BFB84B16E
:10312C0037B9334622460D49A3E7DC460A46F1E798
:10313C0005EB0B002246394600F0D2FFA3441FFAE0
:10314C008BFB09F10109444667E700BFC7E10200A8
:10315C008100400005E20200ECE1020038E20200CE
:10316C0010B5044C20600448018004490A60044AEC
:10317C00136010BDC0200020C4200020BC20002003
:10318C00B820002008B430B586B009AB0C4653F813
:10319C00045B0D49059309880092CDE90153024661
:1031AC000A4800230068FFF711FF094B1B681880C1
:1031BC00084B1B684FF48A525C80DA8006B0BDE87D
:1031CC00304001B0704700BFC4200020C020002058
:1031DC00BC200020B8200020044B054A1968126856
:1031EC000988034603480068FDF769BCBC20002031
:1031FC00C0200020B82000200020FFF7EDBF000009
:10320C0007B5074B1B681B880192064A126800928F
:10321C00054A1268FDF727FC03B05DF804FB00BFFC
:10322C00BC200020C0200020B82000200022FFF786
:10323C00E7BF000007B5064B1B681A880091054BC9
:10324C0005491B680968FDF7F5FB03B05DF804FB45
:10325C00BC200020C0200020B82000200021FFF757
:10326C00E9BF00001FB5094C24680394084C24687E
:10327C0024880294BDF818400194064C2468648894
:10328C000094FDF752FC04B010BD00BFC02000201C
:10329C00BC200020B8200020014B1868704700BFEC
:1032AC00B8200020024B1B6818715971704700BF81
:1032BC00B8200020F8B50D468C680A6826490646E9
:1032CC00202006F0AEFB6B687BB92449202006F069
:1032DC00A8FB20200CF0F0FD2149202006F0B6FBC5
:1032EC002020BDE8F8400CF0E7BD002EF1D01D4DBC
:1032FC001D4E1E4F013C14F8013F23B918492020E4
:10330C0006F0A4FBE5E7752B16D0762B16D0772BA1
:10331C0016D0732B16D0722B16D0712B16D0622BA5
:10332C0016D06E2B16D01249124A2A2B18BF1146F2
:10333C00202006F076FBDEE72946F9E73146F7E771
:10334C003946F5E70C49F3E70C49F1E70C49EFE78F
:10335C000C49EDE70C49EBE767130300FAE20200B6
:10336C00ABE20200B8E20200ACE20200C3E20200EF
:10337C0001E30200FEE20200CFE20200D9E2020009
:10338C00E4E20200EFE20200F9E20200F0B5214AA9
:10339C0092F87B30184452FA80F01F4B90F865C0BD
:1033AC0090F866501F78A5EB0C050026EDB2304660
:1033BC00F4B2A54225D90CEB060313445B7811B18A
:1033CC000CB92D2B17D0782B1FD0582B05D108B149
:1033DC0037240AE0013C012C14D9602B17D8402B60
:1033EC00F6D83A2B34BF302400241B1BDBB29F428F
:1033FC0003D900FB07300136DAE7052382F8793070
:10340C000020F0BD10270020F5E70028E2D057245B
:10341C00EBE700BFC6200020B21A0020094A0023A7
:10342C00FF21137082F8783082F8653082F877309B
:10343C0082F8793082F87A1082F87B30024A136075
:10344C00704700BFC6200020682F0020034B93F864
:10345C00770093F87B30C01AC0B27047C6200020AA
:10346C000021FFF793BF000010B50A4B93F87B20A7
:10347C00024453FA82F292F8652013445C78A4F16A
:10348C002D0359425941FFF781FF2D2C08BF4042B3
:10349C0010BD00BFC620002030B50C4A92F87B301E
:1034AC000344C043DBB2C00F39B1D51895F8664060
:1034BC0095F86550641B241A0C7042FA83F393F848
:1034CC0065301844024B184430BD00BFC6200020A4
:1034DC00C7200020F7B50E460DF1070115461C4616
:1034EC00FFF7DAFF9DF80730AB42074688BF8DF82F
:1034FC0007501CB19DF807402C1BE4B22246304605
:10350C00002100F049FE30199DF80720394600F0E3
:10351C00E7FD9DF8070003B0F0BD38B508220C4656
:10352C000123FFF7D7FF04F10803621E043413F8DC
:10353C00011D12F8015F1D70A3421170F7D138BD47
:10354C0038B5014605460120FFF7B4FED5E9014325
:10355C006CB91C46084D236863B12946202006F03F
:10356C0060FA21460020FFF7A5FE0C34F3E71B7828
:10357C006E2BEFD038BD00BFD6ED020008B5044964
:10358C00202006F04EFA2020BDE808400CF094BC38
:10359C006CE2020038B5FFF7F1FF064D002461190B
:1035AC000C34631953F80C3C03B938BD0020FFF7F9
:1035BC0081FEF4E730CC02002DE9F84F1F4B204D73
:1035CC0053F820201F49202006F02BFA2B681BB93A
:1035DC00BDE8F84FFFF7DEBF1B4FDFF874A0FFF715
:1035EC00CDFF0026B94697F87B30F4B2013B9C42E4
:1035FC0004DB2868BDE8F84FFFF7A2BF47FA86F353
:10360C004C4493F865800023C84494F8662094F8E1
:10361C006510521A03F1010BD2B2DBB2934205D3FF
:10362C000A49202006F0FDF90136DCE743445146F7
:10363C005A78202006F0F5F95B46E6E7B41A00202C
:10364C00682F002067E20200C6200020D7ED0200A0
:10365C00EBFD02002DE9F74F824C94F87730002BEC
:10366C0000F0A380804B1B7813F0010F04F10107CD
:10367C001FD000257D4E14E06319202093F866209E
:10368C0093F86530D21A44FA85F3D2B293F86510E8
:10369C0039440CF00CFC3146202006F0C2F90135FF
:1036AC00EDB294F87730AB42E6D87149202006F0A1
:1036BC00B8F994F877300193DFF8C0E16D4B002630
:1036CC0071461EF8012B91F801C04FF00008ACEBCD
:1036DC00020C07EB020A5FFA8CFC454618680028BE
:1036EC0053D00138D14619E02AB9002D4BD04FF0F8
:1036FC0001080C33F2E719F8011BA1F1410BBBF1E6
:10370C00190F98BF2031A2F1410B98BFC9B2BBF180
:10371C00190F9CBF2032D2B28A42EAD1A9EB0A011E
:10372C00614510F8012FDFD1002ADED11D46524B26
:10373C001D6094F87B30013384F87B30D5E901238C
:10374C000136F6B2002A36D01B786E2B32D03F2BC6
:10375C0024D04FF000094F464FF0070A4FF0040BEE
:10376C005FFA89F0811994F877C0AA68C9B28C45C0
:10377C00D35D28D893B117447B782A2B1CBF032325
:10378C0084F879300AE01D46B3E7B8F1000F01D197
:10379C00002DCCD1022384F87930002594F87900DF
:1037AC0000285CD1686800F02FF903B0BDE8F04F39
:1037BC00FFF734BE1346019AB24281D8032284F833
:1037CC0079201D46EAE7732B08D8712B0AD2002BFF
:1037DC0043D0622B30D084F879A016E0A3F17502A7
:1037EC00022AF8D8752B1ED0762B1FD0732B20D025
:1037FC00722B47F6FF7818BF4FF0FF380121FFF707
:10380C00C5FD404501D984F879B0AB683B4409F15A
:10381C0001095B782A2B94F879301CBF0137FFB271
:10382C00002B9DD0BAE74FF0FF08E7E74FF6FF7883
:10383C00E4E74FF07F08E1E794F87B30184454FA42
:10384C0080F090F8653023445B78222BDDD07B2B05
:10385C00DBD0052384F87930D7E70323FAE7FFF7A9
:10386C00ABFEA2E7C620002042210020D7ED0200CB
:10387C00A9E2020030CC0200682F00202B2100208E
:10388C002DE9F3415E4C5F4F06460D464FF00008A4
:10389C0066B90DF1070128460CF002FB78B1262819
:1038AC0000F0A980012384F879304BE0002D00F062
:1038BC00A28016F8013B8DF80730013DEDB23A7845
:1038CC009DF807303B700D2A01D10A2BE0D00D2B4F
:1038DC000CD0A3F10A025142514122788846042AA5
:1038EC00D6D8DFE802F0051D263C31000121F4E7B3
:1038FC0021B1FFF7AFFE4FF00108C9E7202B63D0D1
:10390C00222B07D10223237094F87820642A5DD1EE
:10391C000623C8E77B2B01D10323F4E70123F2E74D
:10392C0009B9202BF0D194F87730112B3FD1032318
:10393C00B9E7222BF7D00029E6D0052384F879309B
:10394C004FF0010804232370B8F1000FA0D094F8B5
:10395C00790008B1FFF730FEFFF760FD98E77D2B8B
:10396C0094F87A0003D1FF28DDD005239BE7602B68
:10397C0013D8402B13D8392B8CBF002230229A1A23
:10398C00D2B20F2A10D8FF280BD002EB0012FF2363
:10399C008DF8072084F87A30B6E75722EFE7372204
:1039AC00EDE784F87A2073E7202BDED170E7013342
:1039BC00DBB284F87730234494F8782083F86520C0
:1039CC0000232370002994D1884661E72378012BCA
:1039DC0009D19DF80730A3F1410119299CBF20336F
:1039EC00DBB28DF80730A3189DF80710597001321F
:1039FC0084F878204CE7404602B0BDE8F08100BF67
:103A0C00C62000204321002010B5054B0446187831
:103A1C0000F078FCA047BDE8104000F07ABC00BF75
:103A2C00542100207FB501A8FDF744FB01AA0349EE
:103A3C00042001F0BBF807B05DF804FBDCE50200E4
:103A4C002DE9F04F18228DB0FF230DEB0200002161
:103A5C008DF80A3028F03BFA0DF10B014FF0FF30D6
:103A6C00FFF71AFDFFF7DEFF41F202029D49042029
:103A7C0001F09CF804A8FDF7FFFD06A90DF10A0062
:103A8C00FDF700FE0420984901F0ACF8042001F089
:103A9C0079F810B104A800F0FBFF9DF922309DF8D5
:103AAC0023209249042001F081F81CF0CBFF831EE7
:103ABC00DBB2FC2B05462AD88D498E4E8E4FDFF893
:103ACC00A482042001F072F801242246314604201D
:103ADC0001F088F803A9E0B21CF05EFF91280246C1
:103AEC0000F09580932800F09280002840F094809C
:103AFC009DF90C1000919DF80E309DF80D207F491A
:103B0C00042001F053F80134E3B2AB42DDD3BDF82D
:103B1C002040FDF7D3FB224603467949042001F0EF
:103B2C0061F80420774901F05DF8042001F02AF8CF
:103B3C0010B106A800F0ACFF7349042001F036F870
:103B4C0022F024F8044622F01BF8224603466F4963
:103B5C00042001F02BF8FDF7AFFD6D49042001F0B6
:103B6C0041F89DF80A20FF2A5BD06A49042001F035
:103B7C0039F86549DFF8F081042001F017F8FDF7FA
:103B8C008DFD654A65490346042001F00FF81CF0D1
:103B9C00CBFE63490246042001F024F8FDF784FDB6
:103BAC000446FDF787FD224603465E49042000F0DB
:103BBC00FDFFFDF7D3FE5C490246042000F0F6FF42
:103BCC000025FDF7CBFEECB2A0422FD801225749BD
:103BDC00574C042000F0EAFF002000F093FB554BFB
:103BEC0055490022042000F0E1FF236853B11A78F4
:103BFC005249042000F0DAFF236851495A78042016
:103C0C0000F0D4FF00F085FB0DB0BDE8F08F394615
:103C1C00042000F0CBFF76E74146042000F0C6FFFD
:103C2C0071E74849042000F0DDFFA2E7464B474FFF
:103C3C0003EB04162046D6F80890FEF7F5F88246FA
:103C4C002046FDF791FE002814BFC346BB46204614
:103C5C00FEF7EAF802F0B8F8002814BF40463846E0
:103C6C005B46009052463A49DFF800B1042000F060
:103C7C00B9FFB1797388327B0191B188009104202E
:103C8C00344900F093FF002699F80430F4B2A342B3
:103C9C0001D8013595E7D9F800702F482F49142326
:103CAC005C4307EB040A3B5B9AF90C2011EA2201F6
:103CBC0038BF01460A460420594600F093FF042001
:103CCC0000F060FF38B150463C5BFDF76BFE0146DF
:103CDC00204602F0E1F82249042000F067FF01368B
:103CEC00D2E700BF9CE30200B7E30200E3E302006B
:103CFC00BEE30200D4E30200F8E30200DBE30200BF
:103D0C0003E4020021E4020079C502002AE4020067
:103D1C004BE402006F1603005EE4020067E402004D
:103D2C0075E4020089E4020098E402000CE502004C
:103D3C005021002018E5020026E5020032E50200C1
:103D4C0044E5020056E402002C2F00207BE3020025
:103D5C00A3E40200C3E4020090E3020084E3020047
:103D6C00ABE2020093F5020073E30200F5E40200FB
:103D7C0008B50020FFF774FBBDE8084080B200F0E6
:103D8C007FBF08B50020FFF76BFBBDE8084080B291
:103D9C0000F08ABF70B5074D074E00240C34631930
:103DAC0053F80C2C02B970BD3146042000F0FEFE15
:103DBC00F4E700BF30CC02006713030005F01CBB16
:103DCC0008B50020FFF74CFB054B1A7810F0FF0FDD
:103DDC0014BF42F0010222F001021A7008BD00BFAC
:103DEC00422100202DE9F84315F09CFD104EDFF820
:103DFC004C80DFF84C9007460025EBB256F8334068
:103E0C000CB9BDE8F88358F823204946012000F08E
:103E1C00E9FE23782BB90749012000F0C7FE0135D4
:103E2C00EBE762680449D21B012000F0BFFEF6E705
:103E3C00A4C10200D3E502001E120300641A002084
:103E4C00CCE5020010B525F0ABFC0D490446012071
:103E5C0000F0C8FE022C0DD0032C0DD0012C0DD17E
:103E6C000849012000F0BEFE07490120BDE81040C2
:103E7C0000F09CBE0549F4E70549F2E70549F0E777
:103E8C005DE502007AE50200F914030080E502000A
:103E9C008FE502009FE502002DE9F843114EDFF893
:103EAC0054800025FDF75AFDECB2A04201D8BDE8C4
:103EBC00F8832701204616F80790FDF755FD0A4BAD
:103ECC000A49002818BF43464A46012000F08AFEE2
:103EDC00F05DFDF74EFC0649012000F067FE013550
:103EEC00E0E700BF2C2F0020E8E60200C1E502004D
:103EFC00ABE20200DEE6020008B50020FFF7B0FAE4
:103F0C00094B1B681B681978A1F16503594259418B
:103F1C00C0B2FEF763F928B904490120BDE8084096
:103F2C0000F044BE08BD00BF682F0020A7E50200CA
:103F3C0049BA89B24840C0F303114140080380B22A
:103F4C004840C3B280EA431070470000014B187818
:103F5C00704700BF44210020014B1870704700BF10
:103F6C004421002019F002B938B5A0F143030546ED
:103F7C000A2B31D8DFE803F0060A0A12123030306F
:103F8C0030301100BDE8384015F0B8B815F082F8A3
:103F9C0020B115F0B3F80028FBD138BD114C2078B6
:103FAC000028FAD10123443D23700CF0FDFB032DB6
:103FBC000DD8DFE805F00606090240F6010015F001
:103FCC0081FC00232370E8E740F60200F7E77A2132
:103FDC00054804F011FBF4E78C210348BDE8384098
:103FEC0004F00ABB45210020EBE502007047704746
:103FFC007047704770477047704770470020704794
:10400C00704770477047002070477047704700201A
:10401C00704770470020704770470120704701209F
:10402C007047704770477047704770477047000083
:10403C002DE9F047204DDFF8A090DFF8A0A0002478
:10404C005FFA84F840461CF009FDFF2806460CD1A7
:10405C0022461A49287805F0F9FC287801340BF02F
:10406C002BFF142CECD1BDE8F087154B59F824200C
:10407C00144947B213EA270338BF5346287805F092
:10408C00E5FC002FE9DA14B1B8F1030F08D10E4B9F
:10409C000E49287816F0010F18BF194605F0D6FC0A
:1040AC000A2CDAD10A4B0B49287816F0010F18BFED
:1040BC00194605F0CBFCD0E7B11A0020F1E602005E
:1040CC00ABE2020019E70200B4E60200CAE6020005
:1040DC00DCE60200E6E6020060E602002EEC0200DE
:1040EC008842F0B54FEA92031AD89BB29E0087190A
:1040FC0004460D4604370434BC4205F104053AD19C
:10410C00C3EB8333314402EB8303013E304411FA99
:10411C0083F3994220D011F8012B00F8012FF8E716
:10412C00541E20449BB22144A0EB830604460D464A
:10413C00043E043CB442A5F104050ED16FF0030417
:10414C005C43C3EB833302EB830321449BB2013406
:10415C002044CB1A994209D1F0BD2F792771EF7801
:10416C00E770AF78A7706F786770E2E711F80129F4
:10417C0000F8012DEEE715F804CC04F804CC15F882
:10418C0003CC04F803CC15F802CC04F802CC15F8D7
:10419C0001CC04F801CCAEE70244904200D1704748
:1041AC0000F8011BF9E710B5013801390AB91046BE
:1041BC0006E010F8014F11F8013F9C4201D0E01AC3
:1041CC0010BD013A92B2F1E70A4B10B500241C70F5
:1041DC00FDF774F8084B2146188052220748FFF768
:1041EC00DBFF074B07481C8021460C22BDE8104022
:1041FC00FFF7D2BFA9210020AA2F0020AC2F00204E
:10420C009C2F00209E2F002007490B88512B9FBF0D
:10421C00064AD05401339BB29DBF0B8003F1FF3390
:10422C0098180020704700BF9C2F0020AC2F002056
:10423C0038B50546C0B2FFF7E7FF0446280AFFF77A
:10424C00E3FF14B1002808BF0024204638BD00004D
:10425C001944914208B509DC0144002063B111F8FE
:10426C00012D013B02EB0020DBB2F7E702201A46DE
:10427C00024900F09BFC002008BD00BF0EE80200C4
:10428C000423FFF7E5BF08B50223FFF7E1FF80B277
:10429C0008BD00008A4208B5034606D8084A0949F9
:1042AC00022000F083FC084808BD5B5CFF2B08BFB4
:1042BC0000230B4493420844F6DB044AEFE700BFAB
:1042CC0025E8020036E802004E21002044E80200F6
:1042DC000078FF2808BF0020704708B50222002193
:1042EC00FFF7D1FF4FF6FF73984208BF002008BDBF
:1042FC00024B034A1A600020704700BF5021002077
:10430C004DC90200002814BF702000207047002007
:10431C007047002070477047014B1878704700BFFA
:10432C002C2F002008B5FDF7BDFCFF280CBFFF208B
:10433C00002008BD08B5FFF7F5FFFF280CBFA32030
:10434C00002008BD0023037070470078003018BFB0
:10435C0001207047FCF7B2B9FCF7BDB910B51822B3
:10436C0000210446FFF718FF2046FEF7D6FC00207C
:10437C00FFF776F8E0720120FFF776F8A0720220C2
:10438C00FFF76EF82081FFF761F8032808D90320A6
:10439C00FFF766F8E37A03F01F0343EA4010E0727C
:1043AC0010BD00007FB518220021684627F08FFD54
:1043BC006846FFF7D3FF6846FCF75AFE044A0549E6
:1043CC000346042000F0F2FB07B05DF804FB00BFCD
:1043DC005B18030004E9020010B50020FFF740F859
:1043EC00041C4FF0010018BF0124FFF739F80849ED
:1043FC00A222002818BF014620461EF0A7FA054A43
:10440C0005490346BDE81040042000F0CFBB00BFB7
:10441C0000F8FF07D8DB020004E9020070B50020A9
:10442C00FFF71EF804460120FFF71AF80546022094
:10443C00FFF716F8E4B2C2B2201C294618BF0120BF
:10444C001EF0DDFA034A04490346BDE8704004201F
:10445C0000F0ACBB50E9020004E902000149042061
:10446C0000F0A4BBA4E8020008B50C490020FFF73B
:10447C0054F80A48FEF79CFC0420094900F0B2FBF2
:10448C00042000F07FFB10B1044800F001FB05494B
:10449C000420BDE8084000F089BB00BF9F2100202C
:1044AC0096E80200ABE2020010B51FF053FD044A7F
:1044BC0004490346BDE81040042000F077BB00BF60
:1044CC00AEDB020004E9020010B50020FEF7C8FFC5
:1044DC00002104464FF0FF30FEF7DEFF0178A1F11A
:1044EC0062035942E0B25941BDE81040FCF778BB79
:1044FC0008B5FEF75FFC03490246BDE80840012001
:10450C0000F054BB53E8020008B5FEF7FCFB03496E
:10451C000246BDE80840012000F048BB67E80200F5
:10452C0010B50020FEF79CFF0121C4B2A14000236E
:10453C00FE224FF6FF7024F01DFD22460346034970
:10454C000420BDE8104000F031BB00BF79E8020048
:10455C0007B502A8032320F8043D1EF009FF044907
:10456C000246042000F022FB03B05DF804FB00BF00
:10457C00E8E8020008B50020FEF772FFC0B228B1CF
:10458C0004490120BDE8084000F010BB024B187034
:10459C0008BD00BF65E902005421002007B568463C
:1045AC00FDF76AF8FCF78AFE08490246012000F084
:1045BC0019FB684600F06CFAFCF782FE04490246CF
:1045CC00012000F0F3FA03B05DF804FBBFE8020031
:1045DC00D8E8020073B50020FEF742FFC4B20120F8
:1045EC00FEF73EFFC5B20220FEF73EFF46B2FEF7D5
:1045FC002DFF032812D90320FEF732FFC0B2009022
:10460C0033462A462146012026F08AFD40B9094945
:10461C00012002B0BDE8704000F0C8BA0020EEE7FF
:10462C000090054B054A0649012000F0BFFA02B084
:10463C0070BD00BF0CE9020014E90200BEDB0200F1
:10464C0028E9020007B5012026F06CFD034638B9B5
:10465C00084A0949012003B05DF804EB00F0A6BA42
:10466C000090044B054A0649012000F09FFA03B064
:10467C005DF804FB14E902003DE90200D2E00200FF
:10468C0028E90200037813F0050F37B504460CD067
:10469C004388062B14D18268838852681449127897
:1046AC0000920420134A00F081FA2378012B1DD0CC
:1046BC00104A1149042003B0BDE8304000F076BA2E
:1046CC002BB982880D49042000F070FAEDE7012B1C
:1046DC00EBD185680A49042000F084FA284600F0E2
:1046EC00D7F90849042000F061FADEE703B030BDC9
:1046FC0090E902003FE00200E0E90200ACE90200B0
:10470C00C8E90200ABE20200094B1B681B681B786E
:10471C00652B084B0CBF012200221A701978064A2F
:10472C00064B0420002908BF1A46054900F03EBA82
:10473C00682F0020B01A00205DDB020055DB020060
:10474C0013EB0200FEF72ABB37B50020FEF788FEFC
:10475C0005460120FEF784FE054B1C88054B009393
:10476C0082B20123A9B2204600F0F5FF03B030BDA0
:10477C00681B0020914600002DE9F04F384D394F51
:10478C00DFF8F480DFF8F4900FCD91B00BAC0FC4D0
:10479C002B6835492360042000F008FA00263446C3
:1047AC00FCF780FFF5B2A8420AD8FCF77BFF224643
:1047BC0003462E49042000F0F9F911B0BDE8F08F42
:1047CC0007A9284614F0AEFD0246002842D19DF8F8
:1047DC001C30032B84BF04238DF81C309DF81C3037
:1047EC00002B35D02A464146042000F0FBF99DF8F9
:1047FC001C3010AA02EB8303494653F8142C0420F6
:10480C0000F0F0F99DF82030BDF81E209DF829A08D
:10481C009DF81DB005932846049214F07BFD049A74
:10482C00059B02900192009304205B46524610496E
:10483C00013400F0D7F90420E4B200F0A3F918B168
:10484C000DF1210000F024F90A49042000F0AEF922
:10485C000136A5E73946042000F0A8F9F8E700BFB7
:10486C007CE9020040EA0200F2E9020060EA020080
:10487C001FEA0200ABE20200D6E30200671303005A
:10488C0014F048BF08B50020FEF7EAFDBDE808406B
:10489C00C0B2FCF74DBD0000084B1B681B685B7871
:1048AC00652B02D1002001F083BB6E2B01D10120BE
:1048BC00F9E7662B01D10220F5E77047682F00203D
:1048CC00054B1B681B685B78A3F16602534253418E
:1048DC00024A1370704700BF682F0020901B002005
:1048EC0010B5002086B0FEF7BBFD694604460120DA
:1048FC00FEF713FE0123102202A90220FEF7EAFDA7
:10490C00E1B202AB6A46002017F091FE0446042087
:10491C0000F038F918B121460448FCF743F9044972
:10492C00042000F043F906B010BD00BF06EB0200F6
:10493C00ABE2020010B58CB00023122207A90220B2
:10494C00FEF7C8FD03AA014607A8FCF717FF0446AB
:10495C0088B1BD2804D11449042000F027F908E0DF
:10496C00022801D11149F7E702461149042000F051
:10497C001DF90CB010BD01A90120FEF7CEFD20469B
:10498C00FEF76EFD03ABC1B201AA204617F04FFE35
:10499C000446042000F0F6F818B121460548FCF74F
:1049AC0001F90549D8E700BF89EA0200ACEA020028
:1049BC00E7EA020006EB0200ABE202007FB5002042
:1049CC00FEF74EFD04460220FEF74AFDC6B2304605
:1049DC00FFF7B0FCE4B20546E8B901208DF8000001
:1049EC00FEF73EFDADF8020003208DF80160FEF7E6
:1049FC0037FD0DF105018DF804000420FEF78DFD47
:104A0C0017F05BFD69468DF80D00204614F00CFD87
:104A1C000546FFF77EFC2B4622460349042000F096
:104A2C00C5F804B070BD00BF77EA0200F8B50646C1
:104A3C000C4615461F4600F0A5F818B1013C25445C
:104A4C00AC4200D1F8BD14F8012F3946304600F0C5
:104A5C00C9F8F5E730B4044D044C002B14BF2B46B9
:104A6C00234630BCFFF7E2BF3BEB020040F50200EF
:104A7C0070B5054608460C46FFF72AFC611C82B24D
:104A8C00024B2846BDE87040FFF7D0BFEBFD02009B
:104A9C0000B502460C49C3790888117889B0069193
:104AAC005178059191780491D17803911179029103
:104ABC00517901919279009204493E2200F092F8CA
:104ACC0009B05DF804FB00BF562100203FEB02004B
:104ADC002DE9F047104EDFF850A0104F05468846E0
:104AEC0091460024AC4201D1BDE8F08708EBC4012B
:104AFC00308853460822FFF799FF01343088B9F10A
:104B0C00000F07D1064AA54208BF3A46054900F0F6
:104B1C0069F8E7E73A46F9E756210020A9E20200D6
:104B2C00ABE20200661303003BEB020001460022DD
:104B3C000220FFF7CDBF00002DE9F0410E4C0646D8
:104B4C00208800F01FF8A8B10C4FDFF83480002546
:104B5C00F3070AD518B94146208800F043F820889D
:104B6C002A46394600F03EF8002001351B2D4FEA4D
:104B7C005606EDD1BDE8F081562100200610030049
:104B8C000FC502004FF6FF73984208D0030A08D1F4
:104B9C00054B1B78034214BF0120002070470120F5
:104BAC0070470020704700BF6A1B00200EB417B579
:104BBC0005AA044652F8041B0192FFF7E3FF40B12B
:104BCC00202004F056FF0549202004F02AFF044B56
:104BDC001C8003B0BDE8104003B07047A9E202008E
:104BEC00562100200EB417B505AA044652F8041B32
:104BFC000192FFF7C7FF20B1202004F03AFF034BCE
:104C0C001C8003B0BDE8104003B070475621002053
:104C1C00F7B50F4F0F4E104D00240120A04080B26D
:104C2C0057F82420FFF7AEFF002814BF3046284663
:104C3C001346009022460949202004F007FF013456
:104C4C0020200BF039F9042CE7D103B0F0BD00BFE4
:104C5C0054EB020068EB02006CEB02006FEB0200FD
:104C6C000122FF210148FFF797BA00BF6A1B002001
:104C7C00012200210148FFF78FBA00BF6A1B0020F8
:104C8C000122430100F0070002FA00F003F47F4315
:104C9C0003449BB21A0A01BF02490A7813430B70F2
:104CAC00704700BF6A1B00200122430100F007007F
:104CBC0002FA00F003F47F4303449BB21A0A01BFCB
:104CCC0002490A7822EA03030B7070476A1B002022
:104CDC0013B503680446587901F076F888B923684F
:104CEC005A88032A0DD0E17C5B790120CDE90021A3
:104CFC000849094AFFF75AFF0121204601F04FFAF3
:104D0C0005E02046FDF78DFF01460028F5D1012076
:104D1C0002B010BDA9EB020055DB02002DE9F04FEB
:104D2C008BB0C27C0592427D03688668B0F80CB0EB
:104D3C0090F814905F88002A14BF80224022054608
:104D4C005879069201F040F8C0B9059B052B04D8A0
:104D5C00059A2D23D340DB0710D4032F0ED0AF4977
:104D6C000120FFF723FFAE49059BAE4A0220FFF757
:104D7C001DFF0121284601F012FA4BE1EB7B1BB120
:104D8C002A8A002A00F04282A74A00211180697DFC
:104D9C000029904614BF002008200BB140F00400FD
:104DAC00FFF732FAEB7B13B1288AFFF741FAA87CA4
:104DBC00FFF72AFA059B1FFA89F4162B00F22082C2
:104DCC00DFE813F017003A015B00480075015B0047
:104DDC0022017E013601870190019901F300AF0198
:104DEC001E021E021E02C501EE01C5010602F300E1
:104DFC00AF010120FFF708FA631C5B4502DB01F0F1
:104E0C0081F907E15A4621463046FFF73CFA2B68F8
:104E1C0081465879B8F80030C3F152039BB2019324
:104E2C002B8A00934A46069B3946FCF732FD70B933
:104E3C002B685879B8F80030C3F152039BB2019338
:104E4C002B8A00934A46069B3946FDF797FCA21C19
:104E5C0094B2D1E70420FFF7D7F94FF00009A31C57
:104E6C005B4520DBB9F1000FC9D1EB7B2C7D002B0E
:104E7C006D4B0CBF022204221A800420FFF7C4F9E8
:104E8C004FF0000AD04604F10309CB454DDC059BDD
:104E9C00052B00F0BF80B8F1000FB0D1BAF1000FB4
:104EAC007FD1802166E75A4621463046FFF7EBF961
:104EBC003319079093F802A05046FCF75FFD68B3D6
:104ECC00E01C3044FFF704FA01305FFA80F85046DA
:104EDC00FCF754FD28B108EB0403ABEB0303032BE5
:104EEC0021D42B685879CDF808A0E31C33440193E6
:104EFC002B8A00933946DDE90632FDF792FB40B16F
:104F0C0009F10109FFF780F907985FFA89F9FFF7B2
:104F1C008FF908F10302224494B2A0E75046FCF743
:104F2C00C9FC8046D3E78020EAE75A462146304642
:104F3C00FFF7A9F9331908909B7807931846FCF7EB
:104F4C001DFD06EB09030993E0B11846FFF7C0F904
:104F5C0001305FFA80F92B68089A5879079B029305
:104F6C00099B01932B8A00933946069BFDF711FB95
:104F7C0068B90AF101035FFA83FA09F103022244CA
:104F8C0094B280E70798FCF795FC8146E3E708F1BB
:104F9C0001035FFA83F8FFF737F90898FFF748F930
:104FAC00EBE74046FFF730F929E7059B0C2B14BFC4
:104FBC0016200D20FFF728F9214630465A46FFF7F8
:104FCC0062F9059B4E44152B8246B47802D1132C02
:104FDC0028BF13240020B8F80060FFF715F92B68E0
:104FEC005879059BA3F1150CDCF1000343EB0C0382
:104FFC00CDE901432B8A00935246069B3946FDF7B7
:10500C0089F90A4B9855FAE62846FDF76AFE0028FE
:10501C0000F0F68001200BB0BDE8F08F7BE30200BE
:10502C00D3EB020055DB02009C2F0020AC2F00209C
:10503C002846FDF7AEFEEAE70A2F06EB09082BD14E
:10504C00DFF8D4A19AF8003033B3EB7B23BBABEB86
:10505C000909B9F1080F1FD15A4621463046FFF70E
:10506C0012F9C8B998F80290B9F1000F14D198F858
:10507C000330E22B10D1211D5A4689B23046FFF77E
:10508C00FFF800F0D9FD00F0D9FD6149024602207D
:10509C00FFF78CFD8AF80090ABEB040292B241460C
:1050AC003846FCF703FC0028B4D1002162E6ABEBD8
:1050BC00040292B206EB09013846FDF780FEF2E7D6
:1050CC00ABEB040292B206EB09013846FDF70BFE7E
:1050DC00E9E7ABEB040292B206EB09013846FDF7A7
:1050EC005AFEE0E7ABEB040292B206EB090138463C
:1050FC00FCF7DEFBD7E701342B6816F809805879EA
:10510C002B8AA4B24246345D0193069B0093394628
:10511C002346FCF78DFF224641463846FDF7E5FD58
:10512C0078E7059B16F80910A3F11600621C4342A0
:10513C0092B24341ABEB020B0031009332441FFAA5
:10514C008BF318BF01213846FDF7D1FDABE7059B6A
:10515C0016F809A04E44112B96F801901BD1122081
:10516C00FFF752F80020B8F800402A4ECDF8048022
:10517C00C4F1510292B2631C00923344CDE902A9EE
:10518C003A462946FDF770F8B8F80030305501332F
:10519C00A8F8003033E61420FFF736F80120E2E7D8
:1051AC0016F809200134A4B2003206EB0403ABEB71
:1051BC00040418BF0122A4B20021C8B2844201F138
:1051CC000101FAD8298A00943846FDF794FD6AE764
:1051DC0016F809200134A4B2003206EB0403ABEB41
:1051EC00040418BF0122A4B20021C8B2844201F108
:1051FC000101FAD8298A00943846FDF77AFD52E766
:10520C00EB7B002B0CBF82218421B3E58421B1E51B
:10521C00EFEB0200AC2F00205821002082B2074B8C
:10522C0042B11A80000C064B0ABF4FF6CE221880F2
:10523C001A8070474BF6EF62F3E700BF6C1B00203F
:10524C006E1B0020094B1888020448BF80F06200D6
:10525C0042001A80064A1388190444BF83F4805311
:10526C0083F00B0359001180584070476C1B0020D1
:10527C006E1B0020034B1870034B1970034B00225C
:10528C001A7070475A210020592100205B21002000
:10529C000C4B13B51B681B681B78672B04D101A83A
:1052AC0016F024FA02B010BD0020FEF7D9F804461F
:1052BC000120FEF7D5F801A9ADF80400204616F040
:1052CC00E5F9EFE7682F002038B51BF02DFB30B166
:1052DC000C4A0D490120BDE83840FFF767BC0B4B69
:1052EC000B4C1B680B491B681D7810226C2D18BFCA
:1052FC0021460123FEF7EEF807490220BDE83840AD
:10530C00FFF754BC00C5020007EC0200682F002018
:10531C00701B0020801B00201DEC02002DE9F047C3
:10532C0007468AB0A0B9FCF7BBF906462649DFF858
:10533C00A080DFF8A090DFF8A0A00120FFF736FCDA
:10534C0000252C46B44205D328460AB0BDE8F087A8
:10535C000126EBE769462FB1012015F0FBFA60B38B
:10536C00FE2403E0204617F05EF910B10134E4B2DC
:10537C00E8E7224651460120FFF734FC0120FFF7F5
:10538C0001FC18B10DF11D00FFF782FB069A414696
:10539C000120FFF727FCBDF8003013F0100F14BFED
:1053AC0079226E2249460120FFF71CFC01350DF1D4
:1053BC000300FFF7BBFBEDB2D8E704490120FFF770
:1053CC0011FCFE24DAE700BF7FED0200D2ED0200F3
:1053DC00B4ED0200BCED0200CAED0200F0B51E49AE
:1053EC001E4D1F4E1F4F89B00120FFF7DFFB694692
:1053FC00002016F029FD002410B1204609B0F0BDA4
:10540C00012022462946FFF7EDFB0120FFF7BAFBEE
:10541C0010B16846FFF73CFB069A31460120FFF7B6
:10542C00E1FBBDF81E2039460120FFF7DBFBBDF880
:10543C001C200D490120FFF7D5FB013402A8FFF712
:10544C0075FBE4B209490120FFF7B0FB6946204621
:10545C0016F0FAFCD0E700BFD9ED0200CAED02004D
:10546C00B4ED020015EE02001CEE0200ABE20200ED
:10547C0000B58BB06946012015F06CFA18B9059887
:10548C000BB05DF804FB4FF0FF30F9E710B58CB0B2
:10549C0002A816F02BF938B9BDF80830DB0703D495
:1054AC002F490120FFF782FB02A9032015F052FAC5
:1054BC0020B12822FF2102A8FEF76EFE079B294A85
:1054CC0029490120FFF772FB9DF82430254A274912
:1054DC000120FFF76BFB234A25490120FFF782FBD4
:1054EC000DF10B00FFF722FBFFF7C2FF214A1E490B
:1054FC0003460120FFF75AFB1E4A1F490120FFF704
:10550C0055FB0120FFF70AFF1A4A1C490120FFF73F
:10551C004DFB0020FFF702FF0446FCF7C1F82246C2
:10552C00034617490120FFF741FB164A1349012096
:10553C00FFF73CFBFFF752FF1349144B012898BFB0
:10554C000B461349CDE900030246124B4FF0010004
:10555C0088BF0B461049FFF729FB0CB010BD00BFEC
:10556C00C6EC0200FEEC020006ED020015ED020096
:10557C0011F20200431D030026ED02002CED020087
:10558C0035ED020049ED0200ABE20200E9E5020054
:10559C00C2EC0200EBDC020057ED020010B500205B
:1055AC00FDF75EFF0446003018BF01201EF0C2FA62
:1055BC00054A064B0649002C08BF1A460120BDE8D7
:1055CC001040FFF7F3BA00BF25EC02002AEC0200F2
:1055DC0033EC020008B50020FDF742FF044B0549EF
:1055EC00188082B2BDE808400120FFF7DFBA00BF87
:1055FC00901F002074EC020008B50020FDF730FF6E
:10560C00034B18700120FDF72BFF024B187008BDDF
:10561C004C210020541B002038B5012505704FF695
:10562C00FB75A94298BF6FEA43439DF81040847202
:10563C0098BF6FEA534303814260064BC07A08213E
:10564C0003EBC000FEF788FE0420BDE8384008F0EC
:10565C0055BB00BF003000200948037873B9094AD4
:10566C001946D3720133042B1173117051601181DF
:10567C00917202F11002F4D101230370704700BF44
:10568C009C2100205C21002038B5FFF7E5FF094D77
:10569C00002416F012FF204400012B5C2BB916F0ED
:1056AC000CFF204405EB001038BD0134042CF0D164
:1056BC000020F9E75C21002030B5054685B0007B61
:1056CC00FEF720FE174BE87A002403EBC0002C7089
:1056DC00FEF738FE16F0F1FE134B00B203EB00138D
:1056EC00204602019A5C22B901300428F9D108F055
:1056FC0025FB696891B12B8943F38132C3F30E0307
:10570C00ADF806304FF6FF7302F00202ADF8083028
:10571C0000238DF80420039301A88847FEF7F9FDB8
:10572C0005B030BD003000205C21002038B50446A7
:10573C00436808460D469847B4F90830002B02DB45
:10574C002B78042B06D1002363602046BDE838403B
:10575C00FFF7B2BF38BD2DE9F34104460D4617469D
:10576C009846FFF791FF0646D8B14FF6FB724FF6FD
:10577C00FD73944288BF1C46294643463A46204650
:10578C0000F0A6F9054602F08FF835B90090062313
:10579C00089A21463046FFF73FFF284602B0BDE885
:1057AC00F0817025F9E7F7B506460C461746FFF76A
:1057BC006BFF054698B121464FF48A52304602F0F1
:1057CC0093F8044602F070F834B9009004233A467A
:1057DC0031462846FFF720FF204603B0F0BD702469
:1057EC00FAE7F7B506460F46FFF74EFF054698B1A8
:1057FC00002240231146304623F0B3FB044623F02D
:10580C0095FC34B9009001233A4631462846FFF7FF
:10581C0003FF204603B0F0BD7024FAE773B50446CD
:10582C000E46FFF731FF054698B10022204611467F
:10583C0023F042FC044623F079FC3CB9009023464B
:10584C0032464FF6FC712846FFF7E6FE204602B0C2
:10585C0070BD7024FAE7000038B5002404700546CA
:10586C00FFF7FAFE0D4B9D420BD003F10802954257
:10587C000ED003F1100295420CD018339D420BD17F
:10588C000324074B03EB0410BDE83840FFF714BFAB
:10589C000124F6E70224F4E738BD00BF00300020F5
:1058AC005C2100202DE9F0479CB014461D4692F86F
:1058BC0000A00F4616F001FE8146FFF7CDFE83488F
:1058CC000A22102313FB0923034400228046197873
:1058DC00514506D113F80A6C1EB1398839B100262E
:1058EC008EE00132042A03F11003F0D1F7E7914462
:1058FC007B8808EB09173A8942F400408342EED1C9
:10590C00617800297CD1A3F50043062BE7D801A1CF
:10591C0051F823F05B5A00005B5A0000EB58000072
:10592C00EB5800003D590000995A0000155A000030
:10593C00E179A379E07A8DF80C0003EB0123ADF843
:10594C001C30617A237A03EB0123811D0D3DADF8E8
:10595C001E3014F811C063798DF8203015F0010554
:10596C008DF814C04CD109AB049304F10C08AE466D
:10597C005FFA8EF9814508F102080AD218F801ACD9
:10598C0018F8029C09EB0A2923F81E900EF1010E5F
:10599C00EEE74900013103EB400301F0FF010693F0
:1059AC005FFA85FE0EEB0003E645DBB211D20DF17A
:1059BC00700E0EEB430304EB010E01359EF80180D3
:1059CC0014F801E002310EEB082E23F84CECC9B2AE
:1059DC00E6E712F4004F0CBF01230323E1788DF8A6
:1059EC000030A37803EB0123ADF80430C2F30E02B0
:1059FC0003ABADF80220029369463846FFF796FEDA
:105A0C0030461CB0BDE8F087042DF9D9053D23794B
:105A1C00ADB29D42F4D1002BF2D0A378E1788DF891
:105A2C000C5012F4004F03EB012304F105040CBFDE
:105A3C0001200320C2F30E02ADF8283003AB04940E
:105A4C008DF82400ADF826200B9309A9D5E70B2D72
:105A5C00D6D903AD08EB09180822A11C2846FEF77D
:105A6C003FFBB8F80830E17A0B9513F4004F0CBFEC
:105A7C00042203228DF82420A27AC3F30E0302EB36
:105A8C000122ADF82820ADF82630DEE7042DB7D979
:105A9C00E178A37803EB01232179ADF828304B1D75
:105AAC00DBB2AB42ACD112F4004F0CBF0123032389
:105ABC008DF82430C2F30E0203AB0534ADF826206A
:105ACC000B9304948DF80C10BFE700BF5C210020F1
:105ADC002DE9F341054601200E4690461F461BF06A
:105AEC00BFFBFF2804461CD002211BF0B3FB42462F
:105AFC00002120461BF00FFE002F4FF48A53009319
:105B0C0028460DBF2346FF232246FF22314601F0D3
:105B1C0083FF054620461BF0C9FB284602B0BDE8B2
:105B2C00F0811825F9E70000304BB0FBF3F22DE9BA
:105B3C00F04103FB12004FF46165B0FBF5F3DCB2EE
:105B4C0005FB13033C25B3FBF5F3DBB2A0EB041010
:105B5C004B71C3EB0313A0EB83038B714FF4FA630C
:105B6C000B8040F201134B80DFF884C00C710123D1
:105B7C0000241D4664264FF4C877944201D1BDE839
:105B8C00F08188780BB1022829D00CEB000E1EF89E
:105B9C00018C91F803E0C64504BF01308870887809
:105BAC000EBFCD700EF1010E81F803E00D2814D15B
:105BBC000B888D7001339BB298070B8012D1B3FB0D
:105BCC00F6F006FB103080B270B9B3FBF7F007FBB0
:105BDC0010339BB2B3FA83F35B090134CDE74FF07A
:105BEC001D08D6E70023F8E70123F6E780510100F2
:105BFC0026EE020010B588B006A90446FFF794FF04
:105C0C000B499DF81B3008889DF81E1003919DF8D8
:105C1C001D1002919DF81C100191BDF818100091F7
