S00F0000747579615F73646B2E73333781
S31500000000401A002059EF01004D3F0000513F00000B
S31500000010A70A0A010002000004180FAC0065BC0024
S3150000002000000000000000000000000000000000CA
S31500000030000000009C5902000000000000000000C3
S315000000400000000000000000FFFFFFFFFFFFFFFFB2
S31500000050FFFFFFFF00E007000000000000000800AF
S31500000060FFFFFFFFFFFFFFFF28000000000000006A
S31500000070000000000000000000000000000000007A
S31500000080B83F0020B4330020B4330020B43300203E
S31500000090401A0020DC8202000C3E0200E010002024
S311000000A0AC10002000000800B83F002053
S31500000200401A002059EF01004D3F0000513F000009
S31500000210593F0000553F00005D3F000057EF0100C9
S3150000022057EF010057EF010057EF010057EF0100AC
S31500000230613F000057EF010057EF010057EF010043
S31500000240C9570000F1E700009D410000D43F0000BF
S31500000250B5E200005DE80000FDE7000015E80000DB
S31500000260F5E70000FD4E0000D14F0000B96900001F
S3150000027065970000D43F0000D43F00002904000029
S3150000028057EF0100D43F0000F54F0000D43F0000B7
S31500000290D43F0000D43F0000D43F0000D43F00000C
S315000002A0D43F0000D43F0000D43F0000D43F0000FC
S315000002B061E80000F9E7000029D100004D55000073
S315000002C0A1E80000D43F000019D10000D43F00008F
S315000002D0D43F0000D43F0000D43F0000D43F0000CC
S315000002E0D43F000057EF010057EF0100D43F000054
S311000002F0D43F0000D43F000057EF01008F
S315000002FCF8B500BFF8BC08BC9E467047F8B500BF01
S3150000030CF8BC08BC9E46704710B5054C237833B92B
S3150000031C044B13B10448AFF300800123237010BDC6
S3150000032CE41E002000000000307E020008B5034BDE
S3150000033C1BB103490348AFF3008008BD0000000061
S3150000034CE81E0020307E0200154B002B08BF134B15
S3150000035C9D46A3F5803A00218B460F461348144A56
S3150000036C121A23F03AFD0F4B002B00D098470E4B78
S3150000037C002B00D098470020002104000D000D48EA
S3150000038C002802D00C48AFF3008023F0F7FC2000C5
S3150000039C290009F02BFC23F0DDFC00BF000008004F
S315000003AC401A00200000000000000000E41E00209F
S315000003BCB4330020000000000000000070B5134CA0
S315000003CC8A00A31822449B781D09062D98BF104E4F
S315000003DC03F00F0394BF755DFF25062B05719ABFBD
S315000003EC0C4DEB5CFF234371FF3B18BF012383715C
S315000003FCD37014F82130084C43705378837001463F
S3150000040C204606F049FB0123A36070BD001F0020A7
S3150000041C4B40020044400200002000407FB52249B8
S3150000042C22480022FF23CDE901228DF809300378FA
S3150000043C4C6C8D6B03922C40E407DBB228D5022B57
S3150000044C26D88C6C1A4901EB8301A5B2CE781949D2
S3150000045C06B326041ED521F813201749012202FAE9
S3150000046C03F30A781343154A0B701378CBB10023A8
S3150000047C1478DC40E407D9B20FD50170107801244A
S3150000048C04FA03F34340DBB201A81370FFF796FF9F
S3150000049C04B070BD21F81350DFE70133032BE7D10D
S315000004ACF6E703230370F3E7002000400C1F00203F
S315000004BC001F0020101F00200E1F00200D1F002003
S315000004CC08B5012012F05CFA024812F0CFF9024B83
S315000004DC187008BD544002006C2B002008B501F0C2
S315000004ECA1FC012805D0034B1878BDE8084012F092
S315000004FCA1B908BD6C2B00202DE9F04F1E4693B018
S3150000050CFF23022E8046894614461C9D9DF874A036
S3150000051C8DF81E3040F2BA802B785A072BD5042E54
S3150000052C40F2B48095F804B05D4A002302EBC30197
S3150000053CDFB20979FF2907D001330A2BF6D1209BAC
S3150000054C002B40F0A780FF27002308AA0DF11F01FE
S3150000055C20798DF81F3001F0D8FB78B1BDF82C301E
S3150000056C23809DF81F0001F0B7FD8DF81D00C8B162
S3150000057C13B0BDE8F08F95F802B0D5E7207900F0FE
S3150000058C1DFFFF28059000F08380207901F0B6FD51
S3150000059C8DF81D000028EBD1059B424800EB03109B
S315000005AC43882380618823884FF6FF72B8F1000FC9
S315000005BC08BF4A46CDE9001258465246002102F0C1
S315000005CCB1FC18B1E38843F02003E380209B0F9520
S315000005DC0DF11D010DA8CDE90D34ADF84090ADF827
S315000005EC42608DF844808DF845A001F0DCFB10B11B
S315000005FC9DF81D00BCE7284602F0F6FBA01D02F094
S3150000060CE1FB22464946404602F09CFD80B2B042D0
S3150000061C2CD39DF87C300393BDF8783002930DF102
S3150000062C1E03CDE900532246F3B24946404600F07C
S3150000063C3CFC8DF81D00209A9DF81D30D2B15BBB99
S3150000064C9DF81E20FF2A08D0092F06D8144B03EB61
S3150000065CC7010A71209A43F837209DF81D3013B94B
S3150000066C112001F02EFB01F03EFDC1E774238DF83D
S3150000067C1D30E0E7BA2BF0D1E388DB06EDD500237D
S3150000068C01208DF81D3001F0D3FBE6E701206FE762
S3150000069CA3206DE7B4206BE7BA2BEDD0E3E700BFE0
S315000006AC181F0020742B00200023054A10B519468C
S315000006BCFF24D018047199500833502BF9D110BD72
S315000006CC181F002010B586B0089C04940024CDE9B0
S315000006DC02440124CDE9003413460A46014606209D
S315000006ECFFF70AFF06B010BDF0B502288BB0054621
S315000006FC0E4614461F460AD106A9F0B21EF050FE4D
S3150000070C98B99DF8193023719DF81C306371119BB3
S3150000071C04930022109B0192CDE9022200932246FB
S3150000072C3B4631462846FFF7E7FE0BB0F0BD00000E
S3150000073C7FB505460E4613F0BFF82A460446034617
S3150000074C0C49022001F01CFD8CB986B101238DF8F1
S3150000075C0E3003230093224603AB36214FF6FC7072
S3150000076C8DF80C408DF80D5002F0EEFD0446204637
S3150000077C04B070BD0C410200FF2810B50C4604D124
S3150000078C0220044901F0FCFCFE202146BDE8104085
S3150000079CFFF7CEBFA8410200F8B50F8805460C46F8
S315000007AC1646A7B900F050FC40B9628848F22103FE
S315000007BC9A4203D17178284601F0B5FA6388B3F5ED
S315000007CC004F02D9082001F0FFFA012000E00020BA
S315000007DCF8BD2DE9F04788B00C46924699468046FE
S315000007ECBDF84060119D17F02BFF8DF80880074669
S315000007FCCDE90345ADF81460ADF816008DF818A0D8
S3150000080C8DF8199000F0EEF98DF81A0000F0ECF95D
S3150000081C8DF81B001FF07BF98DF81C0002A801F067
S3150000082CC0FAA8B933462A462146384602F076F86D
S3150000083C70B933462A4621463846FFF7ADFF38B91C
S3150000084CCDE9007033462A464146204602F090FB1D
S3150000085C08B0BDE8F08700002DE9F04F85B0804662
S3150000086C89461446BDF838600F9D9DF840B01F466A
S3150000087C002B2CD0434A4449022001F09DFC2388CE
S3150000088C002B70D040F2091293426ED03F4A404979
S3150000089CB3F5827F18BF0A466188009101963D49DF
S315000008AC022001F089FC23886BB1022E0BD92B7820
S315000008BC39493A4A13F0010F18BF0A46AB78384942
S315000008CC022001F079FC3749022001F059FC364A26
S315000008DC0023114602EBC3000079584547D152F864
S315000008EC33A0002301EBC3021079584545D1FF20F4
S315000008FC1071002241F8332047B9238833B9B4F973
S3150000090C0230002B02DB082001F0DBF9012001F09C
S3150000091C5BFA9DB12878C30710D510F0040004D0FB
S3150000092C32460121284601F0B7FBCDE9017000954E
S3150000093C334622464946404600F0A6FEBAF1000F61
S3150000094C06D0CDE900573346224649464046D047A5
S3150000095C3346224649464046CDE90E5705B0BDE81A
S3150000096CF04F01F0DCB9114A96E7114A94E70133CE
S3150000097C0A2BAFD14FF0000AB3E701330A2BB1D1E2
S3150000098CBAE700BFB8400200C0400200A340020014
S3150000099CA6400200CA400200A9400200B140020073
S315000009ACF94002006F4A0200181F00209C4002000A
S315000009BCA0400200962813B504462FD028D89128BB
S315000009CC37D094282AD0902814D100F007F91E4B62
S315000009DC00901E4A1E49022001F0D2FBBC2C23D1EA
S315000009EC1C49022001F0CCFB01F0E7F901F0E6F915
S315000009FC01F0E4F9204608F059FA204601F0EAF92C
S31500000A0C00B31549022002B0BDE8104001F0B8BB96
S31500000A1CAF2807D8AB280AD29828EBD10F4B0B4A34
S31500000A2C0F4909E0BC28CFE719F066FFE0E79128EB
S31500000A3CF4D1054B054A0B49022001F0A1FB02F04B
S31500000A4C2CF9D7E702B010BD234102002C4102005D
S31500000A5C3341020040410200784102006741020026
S31500000A6C6F4102005E41020013B50F4C002001F0ED
S31500000A7C33FB23686BB101A800F064FA48B923680C
S31500000A8C1A789DF804309A4203D0012A07D1022B1A
S31500000A9C05D1032301A8ADF8043013F007FE01F0CD
S31500000AAC22FB02B010BD00BF841F002010B5044607
S31500000ABC01F017FB204601F08BF9BDE8104001F060
S31500000ACC12BB000010B506F068FC012300224FF49F
S31500000ADCE131202008F0C6FB03F02AF8044603F0A7
S31500000AEC8BFC224603461249012001F049FB03F018
S31500000AFC25F8044603F08EFC224603460D490120D8
S31500000B0C01F03EFB03F014F8012303FA00F040F267
S31500000B1CA17318420BD0084C207803F015F82078F6
S31500000B2C03F0CEF82078BDE8104003F0CFB910BD25
S31500000B3C844202009A420200491A002007B500229C
S31500000B4C114601A801F0E8F8002837D111F020FC75
S31500000B5C034640B11B491C4A012001F011FBAA2196
S31500000B6C1A4802F087FE01F0ADFAFFF79DFD00F082
S31500000B7C91FA00F055FA0221084601F033FEFFF710
S31500000B8C73FF134B00221A80124A52231380124A07
S31500000B9C4FF4004013800EF035F903F033FB11F0DF
S31500000BACA1FC01F03FF9012801D000F040FA08F051
S31500000BBCA5FBFFF793FC01F098FAEEE7019803B05A
S31500000BCC5DF804FBFB410200B84002000C42020037
S31500000BDC641E0020661E0020681E002011F04EBD0B
S31500000BEC11F062BB18F02CB81FB5684617F036FD2D
S31500000BFCC8B902A919F03EFC082269460DEB0200A1
S31500000C0C01F0E3F910B9002004B010BD02A90120CF
S31500000C1C19F030FC082269460DEB020001F0D5F9FB
S31500000C2C90B90120F0E717F00BFD4FF6FF739842D1
S31500000C3C044609D0002019F035FC8442E3D001208B
S31500000C4C19F030FC8442ECD0FF20DDE77FB5054679
S31500000C5C01F047FA11F012FD40B16B88B3F5006F45
S31500000C6C04D1681D01F05DF8044616E0284601F033
S31500000C7CA9F8D8B90446E6B2694630461EF090FB90
S31500000C8C80B99DF800306BB9294630461EF0EEFB54
S31500000C9C0028E9D075280BD08C2401F024FA2046C4
S31500000CAC04B070BD0134032CE5D1F5E78D24F4E7CF
S31500000CBC8B24F2E710B5044601F013FA204601F036
S31500000CCC7FF858B920461EF09FFB48B175280CBF1B
S31500000CDC8B24882401F007FA204610BD8D24F9E7F1
S31500000CEC0446F7E737B502A9FF2301F8013D044690
S31500000CFC01F007F818B19DF8070003B030BD094B99
S31500000D0C03EB04131D7B1EF004FF854201D0FF206C
S31500000D1CF3E7204600F0DCF90028F8D0204600F076
S31500000D2C9DFBEAE7742B00202DE9F04107460D46A2
S31500000D3C00F0E9FF0646F0B9384600F03FFBFF2805
S31500000D4C19D00E4C04EB001494F80C801EF0E1FE46
S31500000D5C804510D163882B80A3886B80A3792B7177
S31500000D6C0121384600F080FB31466871384600F0A8
S31500000D7C7BFB0126A8713046BDE8F081742B002060
S31500000D8CF8B504460E46154600F018FBFF2802D1AE
S31500000D9C4FF6FF70F8BD0B4B03EB0010077B1EF0F4
S31500000DACB8FE8742F4D146B901222946204600F006
S31500000DBC81FB0028ECD00088ECE7012EE8D100225C
S31500000DCCF3E700BF742B002010B5044601F089F937
S31500000DDC2046FFF7EFFDBDE8104001F084B9000096
S31500000DEC37B50C4B1B681C5C94420D460AD9009215
S31500000DFC2346094A0949022001F0C2F9002420467B
S31500000E0C03B030BD0022014600922346284611F05D
S31500000E1CE9FFF4E7981A0020B8400200E34102000B
S31500000E2CF0B599B0144603AD0F46064601F059F9D4
S31500000E3C204652222946FFF7D3FF84B28CB10DF11E
S31500000E4C0A0017F0EDFB0DF10B0017F0F1FB9DF905
S31500000E5C0B309DF80A20CDE9004539463046FFF7A0
S31500000E6CB8FC01F040F919B0F0BD2DE9F0419AB08B
S31500000E7C1D4605AC0F469046064601F032F9522245
S31500000E8C21462846FFF7ACFF50B180B20090CDE961
S31500000E9C01459DF88030424639463046FFF7DCFC6A
S31500000EAC01F021F91AB0BDE8F0812DE9F7430746A8
S31500000EBC0E460A98BDF830809DF8349019461546B2
S31500000ECC11F0B8FFFF2804463AD00B9B1870062F7A
S31500000EDC34D8DFE807F0040404121929220003466B
S31500000EEC2A463146384617F011FE0546204611F0C3
S31500000EFC45FE284603B0BDE8F0830C220346114696
S31500000F0C284617F0D5FDF0E7EA7A0346CDE90089C5
S31500000F1C1146284617F08EFDE7E703460C222946B4
S31500000F2C304617F02DFDE0E70190EB7A00934A4628
S31500000F3C2B463146404617F047FDD6E70225D5E746
S31500000F4C1825D6E712F036BE13B5044601F0C9F8DB
S31500000F5C0DF1060017F064FB0DF1070017F068FBA6
S31500000F6C9DF907209DF80610204607F001FB30B9C5
S31500000F7C9DF907209DF80610204608F033F901F07C
S31500000F8CB2F802B010BD38B504460D4601F0A9F80A
S31500000F9C2946204607F020FC18B92946204608F0B9
S31500000FAC31F9BDE8384001F09EB838B504460D4617
S31500000FBC01F097F82946204607F044FB18B9294654
S31500000FCC204608F0FDF8BDE8384001F08CB800F07A
S31500000FDC3FB870472DE9F041984686B00F4B154641
S31500000FEC064603A80F461C781FF0AAFE15F0FD0F47
S31500000FFC12D030B9BDF80C309B0702D5032D08BFB3
S3150000100C0324304600942B464246394600F0E4FE53
S3150000101C204606B0BDE8F0810324F2E7681F0020E5
S3150000102C08B501F011FEBDE8084000F074BE08B525
S3150000103C00F074FE07F0BCFC07F0CAFCBDE80840E3
S3150000104C01F02ABE00F0ABBE00F0AFBE0020704728
S3150000105C38B504460D4608F0F3FD29462046BDE892
S3150000106C384000F0BEBE00F0A2BE00F0AEBE0000DE
S3150000107C10B5074A0123312B194601D1002006E091
S3150000108C0233D41814F8034C8442F4D1505C10BDCE
S3150000109CBA420200084B01221A70084B1A704FF420
S315000010AC82725A8000229A809A71054A9A604FF48D
S315000010BC80729A81704700BF691F0020742B002034
S315000010CC0C430200014B1878704700BF691F0020C3
S315000010DC034B03EB0010407B00F00100704700BF90
S315000010EC742B0020413803288CBF00200120704748
S315000010FC00207047002070470388B3F57C4F01D35E
S3150000110CFFF7F8BF0846FFF7F3BF10B54A88048807
S3150000111CA2420DD1037B0C79234009D0B2F57C4F4A
S3150000112C08D3FFF7E7FF0B891B1A5842584110BD2D
S3150000113C0020FCE70120FAE738B50D88D488A542D3
S3150000114C0AD10388B3F57C4F08D2FFF7D5FF138974
S3150000115C1B1A5842584138BD0020FCE70120FAE71B
S3150000116C2DE9F04F8BB04FF0000A01939DF85030EB
S3150000117C0593714BDFF8D0911B7804918046154688
S3150000118C08935746089A5FFA8AF39A4201D8862042
S3150000119C63E099F800300293D9F808300393029A69
S315000011AC98F80030934240F0BF8099F80D30D8077C
S315000011BC09D5039B1B7907934FF0000B079A5FFA2F
S315000011CC8BF39A4204D80AF1010A09F11009D9E7FE
S315000011DC039B1E68142303FB0B6641463046FFF740
S315000011EC94FF002800F09C8033890693002306990F
S315000011FC9AB2914202D80BF1010BDFE7746809939E
S3150000120C0C2202FB0344214642463046FFF794FF6C
S3150000121C2279099B00287BD0049B03B11C609106A4
S3150000122C1ED4464809E01A79920642BFD8783F1870
S3150000123CBFB20C339C42F6D84148059B074493B188
S3150000124C21463046FFF758FF2388B8F802100246AD
S3150000125C029800F03BFD60BB7E200BB0BDE8F08F22
S3150000126C0027384BE6E7002D35D021463046FFF7F0
S3150000127C43FF2388B8F802100246029800F024FDBA
S3150000128C0028E9D0DFF8C49028462379DB0615D56B
S3150000129C21463046FFF730FF98F80060B8F8021088
S315000012AC1495034622463046CC460BB0BDE8F04FAB
S315000012BC60473846DFF898902F46E6E7019AA37800
S315000012CC5AB9E278A3F14101012908D8013AD2B200
S315000012DC394601F063FF0020BFE7019AF2E7433B72
S315000012EC012B05D8023A92B2394601F071FFF2E7AA
S315000012FC059B2BB9019B1BB1E37801998B4218D83E
S3150000130C394617B900F05AFEE5E700F0FBFDE2E7B7
S3150000131C12F0300F02BFE0783F18BFB2013366E718
S3150000132C70890744BFB266E7039BD8880744BFB2EF
S3150000133C49E7892091E700BF691F0020842B002014
S3150000134C702B0020EC420200742B0020031D0000C1
S3150000135C071D00002DE9F0410779064600254FF0E0
S3150000136C1408E8B2874201D800241AE008FB05F0FD
S3150000137CD6F800C00CEB00043CF8000088421AD1E9
S3150000138C32B1802A10D194F90CC0BCF1000F12DADC
S3150000139CB0F57C4F05D32046FFF7ACFE984200D043
S315000013AC4BB92046BDE8F081402A04D194F80CC014
S315000013BC1CF0400FECD10135D3E7000070B50A4B99
S315000013CC0A491D780023DAB2AA4202D3FF2210463C
S315000013DC70BD1C016618645C844202D1747BE40700
S315000013ECF5D40133EFE700BF691F0020742B0020F2
S315000013FC2DE9F0410D4616461F46FFF7DFFFFF2885
S3150000140C0AD0074C04EB00103B463246294680684E
S3150000141CBDE8F041FFF79EBF0020BDE8F08100BF9C
S3150000142C742B002008B513460022FFF7E1FF0030AD
S3150000143C18BF012008BD08B513464022FFF7D8FF98
S3150000144C003018BF012008BD08B513468022FFF7EF
S3150000145CCFFF003018BF012008BD0000014B000172
S3150000146C185C7047742B002070B50D46FFF7A6FF6D
S3150000147CFF2818D00E4B03EB001082689AB100239C
S3150000148C117918461426DCB2A14200D870BD146836
S3150000149C06FB0344247B45B114F0400F1CBF0130FE
S315000014ACC0B20133EFE70020F0E714F0800FF5E748
S315000014BC742B00202DE9F0410F469046FFF77EFF76
S315000014CCFF280BD0104B03EB0010002385682979FD
S315000014DC1C464FF0140CDAB2914202D80020BDE83B
S315000014ECF08128680CFB0300067BB8F1000F08D0CE
S315000014FC16F0400F03D0BC42F1D00134E4B20133F4
S3150000150CE9E716F0800FF5E7742B00202DE9F04F74
S3150000151C89B007461EF0FBFA3D4B1B7802938246B8
S3150000152C00244FF00C0B029B9C422ED2FF2F05D0B1
S3150000153C3846FFF743FFFF28044626D0FF2F354ECB
S3150000154C4FEA041360D1F218127B52455CD0013479
S3150000155CE4B2E8E71B68142202FB05352B89B3F5C8
S3150000156C967F01D902F04EFE4FF000092A891FFA28
S3150000157C89F39A420CD808F10108B3681A795FFA14
S3150000158C88F5AA42E6D8FF2FE1D009B0BDE8F08F66
S3150000159C1FFA89F168680BFB01F14218137913F0F5
S315000015AC100F29D196F800C08DF814C0B5F800C0FC
S315000015BCADF816C013F0400F0CBF4FF0400C4FF0B7
S315000015CC800C8DF818C0415AADF81A1028461146F1
S315000015DC0393FFF791FD039BADF81C005B07D178D5
S315000015EC0DD50229926800D91268012300930023B5
S315000015FC194605A8FFF7B4FD09F10109B6E702295A
S3150000160C94BF08329268F0E74FF000081E44B4E726
S3150000161C691F0020742B00200021FFF777BF70474D
S3150000162C10B5047B14EA010310D0002201238B426F
S3150000163C03D3036953F8220010BD1C4218BF0132B4
S3150000164C4FEA430318BFD2B2DBB2F0E71846F3E712
S3150000165CF8B516461F469DF81820BDF81C300546F1
S3150000166CFFF7C6FE78B10421FFF7DAFF044650B146
S3150000167C284600F043FD3A4631462846A047BDE8C9
S3150000168CF84000F030BDF8BD2DE9F74F0C9D9DF8E4
S3150000169C34B01F4681468A46BDF83830144612B31C
S315000016AC0DB307B392F804802A78618812F0080FFC
S315000016BC14BF402280224046FFF79AFE98B10821BB
S315000016CCFFF7AEFF064670B1404600F017FDCDE9B8
S315000016DC005B3B46224651464846B04703B0BDE840
S315000016ECF04F00F000BD03B0BDE8F08FF8B5BDF8C3
S315000016FC185017461A462B460446FFF779FEE0B1FA
S3150000170C75B90221FFF78CFF0546B0B1204600F0F3
S3150000171CF5FC39462046A847BDE8F84000F0E3BC86
S3150000172C1021FFF77DFF064638B1204600F0E6FC97
S3150000173C2A4639462046B047EEE7F8BD73B5BDF8E4
S3150000174C184016461A4623460546FFF751FEB8B111
S3150000175CC4B92021FFF764FF044670B1284600F097
S3150000176CCDFC099B00939DF81C209DF8203031463A
S3150000177C2846A047044600F0B6FC204602B070BDD1
S3150000178C8624FAE70024F8E72DE9F041866804463A
S3150000179C007800F0B3FC002514273279EBB29A429C
S315000017AC03D8BDE8F04100F09EBC7B43326820783C
S315000017BCD15A02EB030800F08DFA01214046FFF7DF
S315000017CC2FFF034608B1207898470135E5E700005E
S315000017DC70B5084D084E00242B78E0B2834200D831
S315000017EC70BD06EB0010437BDB0701D5FFF7CCFF82
S315000017FC0134F1E7691F0020742B0020012070478B
S3150000180C2DE9F04F89B01D46BDF848409DF8503083
S3150000181C0193934623462A4607460E46FFF7E8FDF4
S3150000182C8DF81470ADF816608DF81850ADF81AB026
S3150000183CADF81C40814618B9012009B0BDE8F08FFF
S3150000184C05A9FFF762FC0028F6D09DF84C30002560
S3150000185C9BB22E462F462C46029336E00C231FFADB
S3150000186C85F8B9F8002003FB08F8D9F80430B2F56E
S3150000187C7C4F03EB080A1AD333F8080058452ED3CD
S3150000188C029BA3422DD900F0E5FB9AF8020000F06A
S3150000189CCDFB019B43B19AF8043013F0010F0CBF3A
S315000018AC0520072000F0C2FB0134A4B219E033F87E
S315000018BC0820ADF81A20514605AA48460393FFF7AF
S315000018CC3BFC039B0028D7D10135B9F80820ABB2F5
S315000018DC9A42C3D83C44A31B58425841ADE7013742
S315000018ECBFB20136B6B2EFE72DE9F04F8FB098468E
S315000018FC9DF8703006930023BDF860908DF82C008F
S3150000190CADF82E10ADF83220009305460E4617465C
S3150000191C08A91A460BA80893199C9DF868B09DF85F
S3150000192C6CA08DF83080ADF83490FFF719FC089B4D
S3150000193C6BB9CDE900672B465A4A5B49042000F087
S3150000194C1FFC4FF0860A50460FB0BDE8F08FBAF177
S3150000195C000F15D19A785A4507D0524A534904209C
S3150000196C00F00EFC4FF08D0AEDE71A79D10707D47B
S3150000197C4C4A4F49042000F003FC4FF0880AE2E77A
S3150000198C1A79520732D59A685168926809910A9267
S3150000199C987801F08BFC089B059093F803A0BAF19C
S315000019AC020F14D803465246214609A801F031FC11
S315000019BC059B0790524621460AA801F02AFC079B74
S315000019CC012B01D0013011D14FF0870ABBE7059BE3
S315000019DC09985246214601F01CFC0128F4D0059BBF
S315000019EC0A985246214601F014FCEBE7069B002BA5
S315000019FC51D1089B0394DB78CDF80090CDE901B367
S31500001A0C3A4643463146284600F0C7F98246002836
S31500001A1C99D1089B0394DB78CDF80090CDE901B3FE
S31500001A2C3A46434631462846FFF788FE824600284A
S31500001A3C89D101230093069B224619460BA8FFF772
S31500001A4C8FFB824600287FF47EAF089B32462946E0
S31500001A5C2046FFF7E4FD43463A4631462846CDE993
S31500001A6C01B4CDF8009000F0B2F9089B0394DB7832
S31500001A7CCDF80090CDE901B33A46434631462846A7
S31500001A8C00F08AF9CDF8009043463A46314628468E
S31500001A9CFFF72CFE57E70749042000F071FB4FF0C7
S31500001AAC000A50E73E4302004A430200724302001A
S31500001ABC864302009A4302002DE9F04786B007469A
S31500001ACC0F9D9DF84060BDF838400094CDE9015655
S31500001ADC884691469A4600F0F5F898B102280ED839
S31500001AEC4FF00003049308BF0123CDE90263CDE94F
S31500001AFC004553464A4641463846FFF7F5FE06B0C2
S31500001B0CBDE8F0870120FAE710B586B04FF0010C5E
S31500001B1C0024CDE9034C9DF828400294099C0194BD
S31500001B2CBDF820400094FFF7DFFE06B010BD0000A4
S31500001B3C30B587B000248DF81030BDF828308DF8FC
S31500001B4C0C00ADF80E10ADF81220ADF81430009460
S31500001B5CBDF830300B9A029402A903A80D9DFFF72D
S31500001B6CFFFA044630B915B1029B9B782B702046C0
S31500001B7C07B030BD8928FAD10249042000F000FBD9
S31500001B8CF5E700BF144302002DE9F04786B0044682
S31500001B9CBDF83C70BDF838A0042F0E461546994684
S31500001BAC64D9CDE9013A00920B460246314904202C
S31500001BBC00F0E6FA0DF1170303930DF11408012357
S31500001BCC02932046CDE900A84B462A463146FFF73C
S31500001BDCAFFF044600283CD19DF81700A0F1410345
S31500001BEC012B29D8404600F05DFA0130C4B2E31C43
S31500001BFCBB423BDA284600F02DFADFF8889000202D
S31500001C0C00F014FA9DF8170000F010FAB9F800303D
S31500001C1C1A19512A0BDC1848A7B23A461844414601
S31500001C2C00F070F9B9F800301F44A9F80070009460
S31500001C3C2B463246114916E0A0F14303012B04D87A
S31500001C4C404600F034FA0230D0E7FFF711FA0446AA
S31500001C5CCDE7284600F0FEF9204600F0E7F90849E2
S31500001C6C00942B463246042000F08AFA06B0BDE8F2
S31500001C7CF08700BFB7430200C82B00200E440200B9
S31500001C8CEB430200B82B002038B5C37B002B437DF9
S31500001C9C14BF8325C325012B044608D0637D73B975
S31500001CAC2368228A59885879FFF7C5FB07E0036831
S31500001CBC028A59885879FFF7C7FB0028EED02846C8
S31500001CCC38BD7047012070470120704701207047CE
S31500001CDCB5207047704700207047002070470020E1
S31500001CEC7047002070470020704700207047002086
S31500001CFC7047002070470120704701207047002074
S31500001D0C7047002070470020704700207047002065
S31500001D1C7047B52070477047002070477047002009
S31500001D2C7047842070477047704770477047012092
S31500001D3C7047000070B50C4615460C490C4A1E46F9
S31500001D4C002808BF0A4603460A49012000F018FA83
S31500001D5C32460949012000F013FA2B462246074960
S31500001D6C0120BDE8704000F00BBA00BF38440200F9
S31500001D7C68410200454402006B44020081440200A3
S31500001D8C00207047034B1B681878012808BF0220F7
S31500001D9C704700BF841F002070470020704700204A
S31500001DAC70470020704700207047002070470020C5
S31500001DBC704700207047002070477047B520704769
S31500001DCC002070470020704770470020704770470E
S31500001DDC7047704700207047704770477047002067
S31500001DEC7047704710B5044C2060044801800449C4
S31500001DFC0A60044A136010BD741F0020781F00206F
S31500001E0C701F00206C1F002049BA89B24840C0F3ED
S31500001E1C03114140080380B24840C3B280EA431024
S31500001E2C70470000014B1878704700BF7A1F0020DE
S31500001E3C014B1870704700BF7A1F00200DF004B8D4
S31500001E4C38B5A0F1430305460A2B31D8DFE803F079
S31500001E5C060A0A121230303030301100BDE8384014
S31500001E6C1EF072BD1EF03CFD20B11EF06DFD00286B
S31500001E7CFBD138BD114C20780028FAD10123443D02
S31500001E8C237007F045FE032D0DD8DFE805F0060696
S31500001E9C090240F601001DF011F900232370E8E752
S31500001EAC40F60200F7E77A21054801F0E3FCF4E777
S31500001EBC8C210348BDE8384001F0DCBC7B1F0020B8
S31500001ECCA5440200704770477047704770477047CB
S31500001EDC70477047704770477047704700207047CF
S31500001EEC7047704770470020704770477047002056
S31500001EFC70470020704770477047704770477047AF
S31500001F0C704770478842F0B54FEA92031AD89BB2D5
S31500001F1C9E00871904460D4604370434BC4205F16D
S31500001F2C04053AD1C3EB8333314402EB8303013E00
S31500001F3C304411FA83F3994220D011F8012B00F8A2
S31500001F4C012FF8E7541E20449BB22144A0EB8306D4
S31500001F5C04460D46043E043CB442A5F104050ED1DC
S31500001F6C6FF003045C43C3EB833302EB830321441E
S31500001F7C9BB201342044CB1A994209D1F0BD2F797A
S31500001F8C2771EF78E770AF78A7706F786770E2E724
S31500001F9C11F8012900F8012DEEE715F804CC04F828
S31500001FAC04CC15F803CC04F803CC15F802CC04F8D1
S31500001FBC02CC15F801CC04F801CCAEE702449042F1
S31500001FCC00D1704700F8011BF9E710B5013801394B
S31500001FDC0AB9104606E010F8014F11F8013F9C4271
S31500001FEC01D0E01A10BD013A92B2F1E70A4B10B5D6
S31500001FFC00241C70FEF7F2FD084B21461880522275
S3150000200C0748FFF7DBFF074B07481C8021460C22CD
S3150000201CBDE81040FFF7D2BFD51F0020C62B00200D
S3150000202CC82B0020B82B0020BA2B002007490B88A0
S3150000203C512B9FBF064AD05401339BB29DBF0B80D8
S3150000204C03F1FF3398180020704700BFB82B00200F
S3150000205CC82B002038B50546C0B2FFF7E7FF04468B
S3150000206C280AFFF7E3FF14B1002808BF0024204616
S3150000207C38BD194491420ADC0144002003B970476B
S3150000208C11F8012D013B02EB0020DBB2F6E7002034
S3150000209C70470423FFF7EDBF08B50223FFF7E9FFEE
S315000020AC80B208BD0078FF2808BF0020704708B52D
S315000020BC02220021FFF7F0FF4FF6FF73984208BF8C
S315000020CC002008BD024B034A1A600020704700BF6F
S315000020DC841F0020EA420200002814BF7020002052
S315000020EC70470020704700207047704708B5FFF70F
S315000020FC65F9FF280CBFFF20002008BD08B5FFF7C7
S3150000210CF5FFFF280CBFA320002008BD0023037099
S3150000211C7047F8B506460C4615461F4600F01CF8E7
S3150000212C18B1013C2544AC4200D1F8BD14F8012F7E
S3150000213C3946304600F040F8F5E7000030B4044D5F
S3150000214C044C002B14BF2B46234630BCFFF7E1BFD3
S3150000215C1A450200874502004FF6FF73984208D0D5
S3150000216C030A08D1054B1B78034214BF012000203B
S3150000217C7047012070470020704700BFF01A0020FE
S3150000218C0EB417B505AA044652F8041B0192FFF7C4
S3150000219CE3FF40B1202002F060FC0549202002F04C
S315000021AC34FC044B1C8003B0BDE8104003B07047F0
S315000021BC6D4A0200881F00200EB417B505AA044606
S315000021CC52F8041B0192FFF7C7FF20B1202002F042
S315000021DC44FC034B1C8003B0BDE8104003B07047B1
S315000021EC881F002013B503680446587900F020FDBB
S315000021FC88B923685A88032A0DD0E17C5B790120C3
S3150000220CCDE900210849094AFFF7BAFF012120460A
S3150000221C00F084FE05E02046FFF736FD0146002857
S3150000222CF5D1012002B010BD264502001E45020064
S3150000223C2DE9F04F427D036890F813B086688789C4
S3150000224C90F81490B3F80280002A8BB014BF802249
S3150000225C402205465879059200F0EAFC98B9BBF184
S3150000226C050F04D82D2323FA0BF3DC070BD4B8F196
S3150000227C030F08D0A4490120FFF782FF012128464D
S3150000228C00F04CFE8FE1EB7B1BB12A8A002A00F092
S3150000229C6E829E4A00211180697D0029924614BFE8
S315000022AC102018200BB140F00400FFF7BFFEEB7BAB
S315000022BC13B1288AFFF7CEFEA87C1FFA89F4FFF724
S315000022CCB5FEBBF1160F00F24C82DFE81BF01700CF
S315000022DC740161004E00A80161006601B001700135
S315000022ECB801C001C8012D01DE014A024A024A02A8
S315000022FCF2011B02F20132022D01DE0104204346DB
S3150000230C834A8449FFF73CFF0120FFF78FFE631CCD
S3150000231CBB4202DB00F0C0FD45E13A4621463046A1
S3150000232CFFF7BAFE2B6881465879BAF80030C3F12C
S3150000233C52039BB201932B8A00934A46059B414656
S3150000234CFEF784FE70B92B685879BAF80030C3F1E1
S3150000235C52039BB201932B8A00934A46059B414636
S3150000236CFFF712FCA21C94B2D1E70420FFF75EFE25
S3150000237C00230693A31CBB4225DB069B002BC9D16D
S3150000238CEB7B2C7D002B614B0CBF022204221A80A6
S3150000239C0420FFF74BFE002306939A4604F103092B
S315000023AC4F4560DCBBF1050F00F0FD80BAF1000F64
S315000023BCB0D1069B002B40F0A28057490420FFF7B2
S315000023CCDFFE80215BE73A4621463046FFF764FE86
S315000023DC3319079093F802A05046FEF783FE0028A7
S315000023EC39D0E01C3044FFF75DFE01305FFA80F90E
S315000023FC5046FEF777FE20B109EB0403FB1A032BBC
S3150000240C2ED42B68079A5879CDF808A0E31C3344D0
S3150000241C01932B8A00934146059BFFF775FB824679
S3150000242CA0B1069B0133DBB250460693FFF7FEFDC7
S3150000243C0798FFF70FFE42463849079B0420FFF723
S3150000244C9FFE524636490420FFF79AFE09F1030215
S3150000245C224494B28EE75046FEF70AFE8146C7E741
S3150000246C4FF0800ADDE73A4621463046FFF714FE68
S3150000247C331907909B7808931846FEF733FEB14440
S3150000248C40B34846FFF70EFE0130C3B209932B68E2
S3150000249C079A5879089BCDE901932B8A00934146FC
S315000024AC059BFFF709FB079B1C4981464246042006
S315000024BCFFF782FEB9F1000F11D1069B19490133C2
S315000024CCDBB204200693FFF75BFE099A0332224423
S315000024DC94B263E70898FEF7CBFD0990D7E70AF1AB
S315000024EC010348465FFA83FAFFF7A0FD0798FFF74A
S315000024FCB1FD4A460A490420FFF742FEE5E750467D
S3150000250CFFF794FD06E700BF55450200B82B0020E7
S3150000251C5E450200A74502008A4502006845020096
S3150000252C8245020035440200924A934B9349CDF8FA
S3150000253C0080BBF1150F18BF13460420904AFFF715
S3150000254C1FFEBBF10C0F14BF16200D20FFF76EFDFE
S3150000255C3A4621463046FFF79FFD4E44BBF1150F18
S3150000256C0746B47802D1132C28BF13240020BAF8DE
S3150000257C0060FFF75BFD2B68ABF1150158794B42F8
S3150000258C4B41CDE901432B8A00933A46059B4146C4
S3150000259CFFF736F97B4B9855BCE62846FFF79DFBB3
S315000025AC002800F0DE8001200BB0BDE8F08F284635
S315000025BCFFF7FFFBF4E7B8F10A0F06EB090A24D183
S315000025CCDFF8C4B19BF80030FBB1EB7BEBB9A7EBA2
S315000025DC0909B9F1080F18D13A4621463046FFF7DA
S315000025EC5BFD90B99AF80290B9F1000F0DD19AF8EB
S315000025FC0330E22B09D1211D3A4689B23046FFF74A
S3150000260C48FD00F0A1FA8BF800903A1B92B25146A5
S3150000261C4046FEF728FD0028C5D100212FE63A1BBF
S3150000262C92B206EB09014046FFF7D9FBF3E73A1BDA
S3150000263C92B206EB09014046FFF751FBEBE73A1B5A
S3150000264C92B206EB09014046FFF7B5FBE3E73A1BEE
S3150000265C92B206EB09014046FEF707FDDBE70134B3
S3150000266C2B6816F8097058792B8AA4B23A46345D51
S3150000267C0193059B009341462346FEF7E9FF22464C
S3150000268C39464046FFF72DFB8DE7621C90B216F8D3
S3150000269C0910ABF11602534253413F1A0031009315
S315000026AC06EB0002BBB218BF01214046FFF71BFB2D
S315000026BCB1E716F809704E44BBF1110F96F801906C
S315000026CC1BD11220FFF7B2FC0020BAF800402D4EA9
S315000026DCCDF804A0C4F1510292B2631C00923344AB
S315000026ECCDE9027942462946FFF788F8BAF8003058
S315000026FC30550133AAF800300CE61420FFF796FC8F
S3150000270C0120E2E716F809200134A4B20032A7EB47
S3150000271C040718BF01223319BFB20021C8B2874281
S3150000272C01F10101FAD8298A00974046FFF7DFFA32
S3150000273C71E716F809200134A4B2003206EB040343
S3150000274CA7EB040418BF0122A4B20021C8B284422C
S3150000275C01F10101FAD8298A00944046FFF7C5FA1F
S3150000276C59E7EB7B002B0CBF8221842187E5842162
S3150000277C85E500BF6F4A020050450200A5450200E0
S3150000278C9B450200C82B00208A1F002082B2074BF3
S3150000279C42B11A80000C064B0ABF4FF6CE221880A7
S315000027AC1A8070474BF6EF62F3E700BFF21A00206F
S315000027BCF41A0020094B1888020448BF80F0620006
S315000027CC42001A80064A1388190444BF83F48053C6
S315000027DC83F00B035900118058407047F21A002001
S315000027ECF41A0020034B1870034B1970034B00228C
S315000027FC1A7070478C1F00208B1F00208D1F002025
S3150000280C0948037873B9094A1946D3720133042B64
S3150000281C1173117051601181917202F11002F4D191
S3150000282C01230370704700BFD01F0020901F0020AB
S3150000283C30B5054685B0007BFFF74EFC174BE87AA2
S3150000284C002403EBC0002C70FFF760FC1DF05FF951
S3150000285C134B00B203EB0013204602019A5C22B91B
S3150000286C01300428F9D1FFF7AFFA696891B12B89C9
S3150000287C43F38132C3F30E03ADF806304FF6FF7304
S3150000288C02F00202ADF8083000238DF80420039301
S3150000289C01A88847FFF727FC05B030BD1C2C00208B
S315000028AC901F002038B50446436808460D469847E5
S315000028BCB4F90830002B02DB2B78042B06D100234D
S315000028CC63602046BDE83840FFF7B2BF38BD000054
S315000028DC38B5002404700546FFF792FF0D4B9D4258
S315000028EC0BD003F1080295420ED003F1100295426B
S315000028FC0CD018339D420BD10324074B03EB041069
S3150000290CBDE83840FFF794BF0124F6E70224F4E74C
S3150000291C38BD00BF1C2C0020901F00202DE9F0476D
S3150000292C9CB014461D4692F800A00F461DF0EFF819
S3150000293C8146FFF765FF83480A22102313FB092300
S3150000294C0344002280461978514506D113F80A6CC7
S3150000295C1EB1398839B100268EE00132042A03F102
S3150000296C1003F0D1F7E791447B8808EB09173A89F5
S3150000297C42F400408342EED1617800297CD1A3F564
S3150000298C0043062BE7D801A151F823F0D32A000007
S3150000299CD32A00006329000063290000B529000032
S315000029AC112B00008D2A0000E179A379E07A8DF8CD
S315000029BC0C0003EB0123ADF81C30617A237A03EB90
S315000029CC0123811D0D3DADF81E3014F811C063793D
S315000029DC8DF8203015F001058DF814C04CD109ABDB
S315000029EC049304F10C08AE465FFA8EF9814508F1A2
S315000029FC02080AD218F801AC18F8029C09EB0A294D
S31500002A0C23F81E900EF1010EEEE74900013103EB9F
S31500002A1C400301F0FF0106935FFA85FE0EEB0003FF
S31500002A2CE645DBB211D20DF1700E0EEB430304EB4F
S31500002A3C010E01359EF8018014F801E002310EEB0F
S31500002A4C082E23F84CECC9B2E6E712F4004F0CBF83
S31500002A5C01230323E1788DF80030A37803EB0123DF
S31500002A6CADF80430C2F30E0203ABADF802200293AC
S31500002A7C69463846FFF716FF30461CB0BDE8F087AE
S31500002A8C042DF9D9053D2379ADB29D42F4D1002B25
S31500002A9CF2D0A378E1788DF80C5012F4004F03EBCA
S31500002AAC012304F105040CBF01200320C2F30E021E
S31500002ABCADF8283003AB04948DF82400ADF826202D
S31500002ACC0B9309A9D5E70B2DD6D903AD08EB09183D
S31500002ADC0822A11C2846FFF715FAB8F80830E17A47
S31500002AEC0B9513F4004F0CBF042203228DF82420FF
S31500002AFCA27AC3F30E0302EB0122ADF82820ADF83F
S31500002B0C2630DEE7042DB7D9E178A37803EB012351
S31500002B1C2179ADF828304B1DDBB2AB42ACD112F4A7
S31500002B2C004F0CBF012303238DF82430C2F30E0291
S31500002B3C03AB0534ADF826200B9304948DF80C10DA
S31500002B4CBFE700BF901F0020FFF743B9FFF7D7B8C8
S31500002B5C10B50268174B1188198051885980517924
S31500002B6C1971117959714FF48A51D980D188890616
S31500002B7C44BF4FF48B51D980D2888169520642BF2B
S31500002B8CDA8842F04002DA800B4A137831B90B49E5
S31500002B9CC088088023F00203137010BD084C43F064
S31500002BAC0203137020461622FFF7ACF9002323709C
S31500002BBCF3E700BFBA2B0020D51F0020C62B002040
S31500002BCCD61F002010B5184C23685879FEF7F6FB73
S31500002BDCFF2822D0154B03EB0010237F027B9A4271
S31500002BEC1BD12368428819888A4205D04FF6FF709C
S31500002BFC814212D1120410D42279023A012A06D942
S31500002C0CA37B63B10848BDE81040FFF7EBBA1989FE
S31500002C1C5879FFF76EF80028F2D1002010BD024853
S31500002C2CBDE81040FFF704BB3C2C0020742B0020A1
S31500002C3C08B5FEF7C3FB10B9024B187808BD002087
S31500002C4CFCE700BF602C002008B50020FFF744FA13
S31500002C5CFF20FEF7E1FCFFF746FAFEF733FA0121F7
S31500002C6C82B20948FFF7AAF9084B094A09485221CA
S31500002C7CFFF7B8F8FDF724FC05F0C8FE00F034FCAD
S31500002C8CBDE80840FEF7A4BD602C0020BA2B00203E
S31500002C9CB82B0020C82B0020704708B510F054FC48
S31500002CAC20B90FF001FB08B9FFF712F8FFF785F80A
S31500002CBCBDE80840FFF791B8F0B50D4E0746002267
S31500002CCC4FF6FF7490B2034636F83050A54201D148
S31500002CDC2046F0BDBD4209D1B7F57C4FF9D306EBC2
S31500002CECC3035B888B42F4D00029F2D00132E9E7AA
S31500002CFC9C49020010B50446FFF7DEFF074B4FF662
S31500002D0CFF721B88904207BF2246054905490022DF
S31500002D1C1846BDE81040FFF74FBA00BF881F0020C9
S31500002D2C16490200B542020073B51546089C2E786A
S31500002D3C16F0040F14BF052603269E421A4608D920
S31500002D4C022000961D4A1E49FFF71AFA002002B00F
S31500002D5C70BDBDF8183021712060E380A560A2819A
S31500002D6C2B7803F00103A3732B7803F00403002BD9
S31500002D7C14BF01210021E1732978C1F3C0016175EB
S31500002D8C4FF00101217517D02846FFF785F9237DF1
S31500002D9C208202332375237D5A1CD2B22275E95C3C
S31500002DACA17402332375AB5CE374079BA3611CF01F
S31500002DBCAEFE20770120CAE72382ECE7B84002007A
S31500002DCC7F49020038B1074B1B78012B04D10388CD
S31500002DDC43F0400303807047022BFCD1038823F099
S31500002DEC4003F7E7D41F002068B1074A1378012B7C
S31500002DFC07D1064B1B781370037843F0100303704E
S31500002E0C01E0022BF8D07047D21F0020D31F002000
S31500002E1C73B51A4D2A78D40706462CD4184B197854
S31500002E2C184B187840074CBFD9705970164912F0D8
S31500002E3C0204098809D0134A1448FEF76AFF2B7856
S31500002E4C23F002032B7002B070BD114A10884FF6A6
S31500002E5CFB72904208D8CDE900360E4A0B46014665
S31500002E6C2046FDF741FCEEE70A460096054B09495C
S31500002E7CFDF728FCE7E70020E5E700BFD51F00209B
S31500002E8CF71A0020C82B0020B82B0020D61F0020D4
S31500002E9CC62B0020BA2B00200020FFF7B9BF00007C
S31500002EAC70B50379012B04460D46164631D8836856
S31500002EBC1B78DB0600D561B3A37B13B9E37C0B2B24
S31500002ECC27D0154B00221A80637D9342E37B0CBFFF
S31500002EDC08201046ABB9FFF7A9F8A07CFFF7A6F8B7
S31500002EEC0B20FFF7A3F8E07CFFF7A0F82846FFF7C6
S31500002EFC9DF82046FFF72CFE3046BDE87040FFF7E4
S31500002F0C87BF40F00400FFF791F8208AFFF7A2F87C
S31500002F1CE3E7002070BD00BFB82B00200022FFF7AE
S31500002F2CBFBF0000F0B4064618460F4BBDF8104064
S31500002F3C1B780E4D012B01D02F7827B1002129705B
S31500002F4C0846F0BC704709B9002AF9D14BB14FF6C7
S31500002F5C57439C4205D033460A462146F0BCFEF741
S31500002F6CBABE0121ECE700BFF61A0020D11F0020E3
S31500002F7C2DE9F04F664E674C8446964699460F46A9
S31500002F8C0FCE25460FC596E80F0085B085E80F00D5
S31500002F9CDDF83C80BDF838300093CDE901844B4612
S31500002FAC724639466046FFF7BFFEDFF8909170B95E
S31500002FBC0025FFF71BF8162200215748FEF7FEFFE7
S31500002FCC00232846C9F8003005B0BDE8F08F534BF6
S31500002FDCA27C1A70524BC9F800401B78002B36D0D5
S31500002FECFFF7B4FD4F4902460220FFF7E5F82168CA
S31500002FFCA2894B794988009102204B49FFF7DCF8EE
S3150000300C0220FFF7A9F820B12368218A5888FFF718
S3150000301C71FEE37B23B1228A44490220FFF7CCF8E8
S3150000302CA268E17CA37C1278009102204049FFF74C
S3150000303CC3F8207DA289A168121A0144012302203B
S3150000304C92B2FFF77BF83B490220FFF799F831481B
S3150000305CFFF77EFD2F48FDF7F5FF05460028A8D1A2
S3150000306CB8F1000F25D12168E6880B88E07C019623
S3150000307CBA1E49880091032A8CBF00220122012125
S3150000308CFFF750FF064638B923685B79FF2B38D01B
S3150000309CFFF798FD05468CE72368DB889A06F3D480
S315000030AC254C1C4801212170FFF738FF2570354649
S315000030BC7FE7B8F814309B07E6D479E73046FEF77D
S315000030CCCDF980463046FEF703F898B12368228A7C
S315000030DC59884046FEF7A6F960B15046FFF738FD11
S315000030EC23688BF8048083F80580FFF76BFD0028B6
S315000030FC18BF05460137FDF7E5FFFEB2B042DDD835
S3150000310C57E70027DFF80CA0DFF834B0F3E700BF71
S3150000311CEC1F00203C2C0020D61F0020F71A0020A4
S3150000312C481A00202E490200364902005449020072
S3150000313C5F4902007D490200D11F00205C2C002053
S3150000314CBA2B002038B5D38813F0200F0CBF5224AD
S3150000315C492405460846590544BF083CE4B21A05FD
S3150000316C44BF083CE4B21B0444BF023CE4B2032D4A
S3150000317C11D8DFE805F005020A0EC0B217F092F975
S3150000318CFEF7C5FD201AC0B238BDC0B21CF000F95E
S3150000319CF6E7013CE4B24FF6FD70F1E770B5064672
S315000031AC14460D4609B9317070BD0B78FF2B01D151
S315000031BC0370F9E70846FEF775FF844228BF0446FC
S315000031CCE4B22246691C701CFEF79CFE3470EBE7D9
S315000031DC70B5054614460E4611B96970297070BD56
S315000031EC0B78FF2B05D14B78FF2B02D10370437064
S315000031FCF5E73046FEF75BFF844228BF0446A4B2CF
S3150000320C2246B11CA81CFEF77DFE2C70240A6C709D
S3150000321CE5E7F0B5002B3ED0042A3ED8551E002318
S3150000322CED0016461C46D6B9042A10D0D200012150
S3150000323C501E01FA00F020421EBF914049420C4339
S3150000324C18421EBF4FF0FF3101FA02F213439C42A3
S3150000325C27DCB4BF4FF0FF30002040B2F0BD60B1A8
S3150000326C871917F8017CAF403C438F19013E17F8BC
S3150000327C017CAF403B43083DD5E70746F3E770B109
S3150000328C831813F8013C8C1814F8014CA34208D887
S3150000329C02F1FF3207D3002AF1D10020DEE7034604
S315000032ACF1E70120DAE74FF0FF30D7E72838072897
S315000032BC8CBF00200120704700F0E000A0280DD044
S315000032CC04D810B1802807D0FF207047C02807D03B
S315000032DCE028F9D11F2070471C2070471D2070472D
S315000032EC1E20704700F01F0070470000034B187833
S315000032FC0130C0B2187000F07F0070470C2000201F
S3150000330C30B585B00024ADF80A20021D92B2012A10
S3150000331C1D46ADF80840ADF80610ADF8044003D9CB
S3150000332C4FF6FF72904207D1064A2B46127801A936
S3150000333C15F026FB05B030BD014601AA204615F056
S3150000334CE5FBF7E7F81A0020F8B51C460E461746BB
S3150000335C0546FFF7CBFF9DF81810207020460FF09E
S3150000336C69FDFF2804460BD003463A4628463146EB
S3150000337CFFF7C6FF054620460FF000FC2846F8BDB1
S3150000338C1825FBE701207047012070470120704784
S3150000339C00207047002070477047704773B502AB2A
S315000033AC03E906000446019D0EF014FF064620466E
S315000033BC0EF01EFF9DF800008EB1202C0FD82B7836
S315000033CC012B36D803EB4313384923444FF6FF75CC
S315000033DC31F81320AA4202D0013221F81320344BC3
S315000033EC344A33F8145032F814604FF6FF718D429C
S315000033FC1CBF691C23F8141004F0FD01092930D1F7
S3150000340C998A928A0144914235DA998233F81430BA
S3150000341CB34204D3B54202D22046FEF785FC264BB6
S3150000342C0025EA5CA24228D00135112DF9D102B053
S3150000343C70BD022BD3D11D4B33F814204FF6FF7100
S3150000344C8A421CBF013223F8142004F121014FF6E5
S3150000345CFF7533F81120AA421CBF013223F8112044
S3150000346CBDE71D2CD2D1598F0144508F814201DA10
S3150000347C5987CBE7928A9A82C8E71CF04AFB0F4B16
S3150000348C1B788342044603D8E0210D4800F0F2F97C
S3150000349C04EB04140B4A2C444FF6FF7132F814302B
S315000034AC8B42C4D0013322F81430C0E7242D0020FF
S315000034BCD42C0020842C0020284A0200D91A002083
S315000034CCA4490200622C0020502200210148FEF77C
S315000034DC75BD00BFD42C00205022FF210148FEF7F9
S315000034EC6DBD00BF842C002008B5FFF7EDFFBDE8CD
S315000034FC0840FFF7F1BF000010B5104C1049A16150
S3150000350C032321660F491022C4E904330E4BE361F1
S3150000351CC4E9191200230D49A362E01D6362E3623C
S3150000352C2367E3666367226220F05FFC0849204646
S3150000353C20F05BFC2023A37110BD00BF00300020DF
S3150000354C394A02000D2000201D200020424A0200AC
S3150000355C464A02002DE9F84F1F4B16461A7881464B
S3150000356C8A4698460AB9FFF7C7FF182707FB09874B
S3150000357C3D6FD7F86CB05D452BD9BC6E796E641B6C
S3150000358CB44228BF344629445046224620F01AFC41
S3150000359CBB6E2544A244361BAB4208BF0025ABEBE1
S315000035AC050B5E4528BF5E4656B1182303FB0983FF
S315000035BC3246596E5046294420F004FC34443544B6
S315000035CC24B1182303FB0988C8F870502046BDE8BF
S315000035DCF88F0024E3E700BF00300020F8B504465E
S315000035EC0E46174603F0DDFE3A46054631462046A2
S315000035FCFFF7B0FF0446284603F0D9FE2046F8BD77
S3150000360C2DE9F843124D1E462B78814688461746FF
S3150000361C0BB9FFF771FF03F0C4FE696900244FF084
S3150000362C180C0CFB04535A6E2AB10134A142F8DC77
S3150000363C4FF0FF3407E0A142FADDC3E918989F6604
S3150000364C1A67DA665E6703F0B2FE2046BDE8F883B9
S3150000365C00300020FFF750BF012270B51146042040
S3150000366C03F0D8FC1A4B1B4D1A681B4842F001029A
S3150000367C1A60DA684FF0604442F08072DA60174BD9
S3150000368CC4F8B03F00260223C4F8006EC4F8806E5E
S3150000369CC5F8F03003F0CAFB00F5D520104B114AE3
S315000036AC00F2FC40B0FBF3F00F4B01382861C4F874
S315000036BC406E1A600D4BC4F8803E4FF48073C5F80B
S315000036CC0433D4F8003E43F48073C4F8003E70BD56
S315000036DCF0ED00E0000004E006000E0055CEACC58F
S315000036ECF8590D00FF030040001000E00D0001002A
S315000036FC10B50121104803F0B9FA104B01241C60D7
S3150000370C002004F08DFA234604220221052004F041
S3150000371CDFFA20460BF01AF9FFF79EFF0BF01AF9A9
S3150000372CFFF798FF2346402205490648FFF768FF36
S3150000373C054B1860C00F10BD00350A0010881442E6
S3150000374C2D2000204D4A0200FC1A0020024B18685E
S3150000375C003018BF01207047F0ED00E0054A4170BB
S3150000376CD12303701378C370090A8170591C117028
S3150000377C042070476D2000202DE9F84F2E4F3B6832
S3150000378C1C5C032C804655D91BF0CFFC0534DFF8A6
S3150000379CACA0E4B281464FF6FF7B0025DAF8003088
S315000037AC4BB1AC4207D91BF0C0FCA0EB090080B2B0
S315000037BCB0F5FA7F04D9601B18BF0120BDE8F88F5D
S315000037CC9DB3012D15D13B6813F8085002264FF016
S315000037DC6043D3F8802ED10709D5D3F8002ED20535
S315000037EC05D519460A6A002AFCD083F820503546BE
S315000037FCD4E7E31E6E1C9D42F6B202D15FFA8BF53E
S3150000380CE5E7A31E9D4202D1CBF30725DFE7631E36
S3150000381C9D420DD0A91EC9B240460FF081FB5946F8
S3150000382C0546FEF7F1FA8346D1E75B250126CEE77E
S3150000383C5D25CCE70120C1E7981A0020F0ED00E0E9
S3150000384C10B50B4B90B0402269461868FFF7C6FEC0
S3150000385C58B1C1B268460FF0EDFA04460146122083
S3150000386C1FF078FF20460FF089F910B010BD00BF8D
S3150000387CFC1A002038B505460C460BF0B3FB00F0DD
S3150000388CC1FC03F086FD214628461FF02FFF234678
S3150000389C2A460649012005F01FFD054B40F2017032
S315000038ACC3E92554BDE838401BF008BC5D4A02004C
S315000038BC000000206D4B2DE9F0416D4C5A68A26555
S315000038CC5A6AE2656B4AD2F800122166D2F80422D3
S315000038DC62669A6AA266DA6AE2661A6B22675A6BA3
S315000038EC6267DB6BA26BA367D4E90F5312F0040F6C
S315000038FC18BF1D461BF006FC002285420346606578
S3150000390C22655CD35C4A954259D8AA696264E96916
S3150000391CA164B4F85810C1F30801062953D15749CC
S3150000392C8A4250D356498A424DD211884DF642628C
S3150000393C914248D16268C4F89420A268C4F89820D1
S3150000394C40F201704F4A5049934238BF13460A461B
S3150000395C8B423BD3D31AE3640023C4E91F33C4E977
S3150000396C2133C4E92333484E444FDFF814C1AE4229
S3150000397C32D8D4E91FC7D4E92165D4E923124FF014
S3150000398C000E013BDBB2FF2B41D1BEF1000F05D07F
S3150000399CC4E91FC7C4E92165C4E92312B4F8583039
S315000039ACC3F30803DA1E0F2A55D8DFE802F03A5B98
S315000039BC474A54545454545154545454543E00226B
S315000039CCC4E911221D464FF42060BBE71E68B6F110
S315000039DCCD3FBFD10433BBE756F8042DBA42C6D34C
S315000039EC6245C4D2D107C2D5002104EB010EDEF824
S315000039FC7CE09645BBD004311829F6D10BB90523CA
S31500003A0C01E0013BDBB204EB8301CA67AFE7E0469A
S31500003A1C4FF0010EBC4637462E460D461146424621
S31500003A2CAFE740F60120BDE8F081184BDB6913F0D7
S31500003A3C020F40F2025318BF1846F4E740F6032073
S31500003A4CF1E740F60423B0F5206F08BF1846EAE705
S31500003A5C40F60520E7E7013B40F607223D2B98BFD1
S31500003A6C1046E0E740F60220DDE700BF00ED00E07F
S31500003A7C0000002000E100E0201A002014030000E2
S31500003A8C0C3E02009C000020401A0020002005403D
S31500003A9C10B504F095FA044604F08CFA00220121C4
S31500003AAC01FA02F3234014D01B4B33F812301B4A95
S31500003ABC062B13D040F207218B420DD11849194819
S31500003ACC0C68844208D14CF23C334B800B88138033
S31500003ADC12E00132112AE3D1104AF8E7104B58884C
S31500003AEC4FF20F01884214D11988B1F5406F10D2EC
S31500003AFC11804CF23C325A80084B1A8840F2017302
S31500003B0C9A4201BF084A094BD2E90001C3E90001F8
S31500003B1C10BD4FF4C061EBE7704A0200782000201C
S31500003B2C0000002007020FF09400002070200020F7
S31500003B3C014B1888000A704778200020014B188822
S31500003B4C704700BF782000202DE9F04F4D4CA36B39
S31500003B5CD4F850B0D4F840A05A074FBF0027D4F879
S31500003B6C4CB0D4F85480D4F83CA05ABF464FDFF87A
S31500003B7C4091DFF84091454A48BFB84613F0080F0C
S31500003B8C434B18BF1A46B7EB08061CBF73086421D3
S31500003B9C87B01FBF01FB0B33B3FBF6F39BB2059348
S31500003BAC3C49CDF800804B46CDE9017A08BF059615
S31500003BBC054600F03FFFB3B2CDE900931FFA8BF236
S31500003BCC059B3549284600F035FFA36B5B070AD4E5
S31500003BDC9C3E5E4507D1626D304B9A4203D230490A
S31500003BEC284600F027FFBA4501D8C24504D24A46FA
S31500003BFC2C49284600F01EFF284605F067FB236E6D
S31500003C0C0BB9636EBBB32849DFF8AC80DFF8AC9018
S31500003C1C284600F0FAFE00260127226E07FA06F364
S31500003C2C134207D058F8262013781BB1494628466C
S31500003C3C00F0EBFE0136202EEFD1DFF87C80DFF8AA
S31500003C4C7C9000260127626E07FA06F3134209D010
S31500003C5C08EB8603D3F8802013781BB14946284617
S31500003C6C00F0D3FE01360E2EEDD1284607B0BDE886
S31500003C7CF04F00F0D9BE0D49284607B0BDE8F04F0D
S31500003C8C00F0D8BE00000020401A0020824D020031
S31500003C9C7B4D02008A4D0200B84D02009C000020AC
S31500003CACF14D02001D4E02003B4E02006A4E020010
S31500003CBC764D0200C15F0200804E0200235C0200BA
S31500003CCC2DE9F8430446FFF739FF40F601239842E5
S31500003CDC39D010D840F2025398421DD040F20173ED
S31500003CEC984224D040F20153984213D1654920469C
S31500003CFC00F0A0FE22E040F6032398426CD03DD3A0
S31500003D0C40F60423984200F09C8040F60523984226
S31500003D1C00F0B580BDE8F8835B49204600F08AFECA
S31500003D2C5A4B5B495A6C204600F084FE06E0574A13
S31500003D3C5849D2E92523204600F07CFE2046BDE8F2
S31500003D4CF84305F0C3BA514D5349204600F072FEB4
S31500003D5C95F86C309F0703D55049204600F06AFE53
S31500003D6C95F86F305E0603D54D49204600F062FE8D
S31500003D7C95F96F30002BE1DA4A49B8E7434D4A49C9
S31500003D8C204600F057FE95F86830980704D06A6C08
S31500003D9C3F49204600F04EFE95F96830002B04DAB8
S31500003DAC6A6F4249204600F045FEDFF80C81DFF8C9
S31500003DBC189100260127AA6E07FA06F3134207D0BC
S31500003DCC58F8262013781BB14946204600F032FEDF
S31500003DDC0136082EEFD1B1E72C4D3549204600F0BF
S31500003DEC29FE2B496A6C204600F024FE95F86930B2
S31500003DFC590703D52F49204600F01CFE95F969306A
S31500003E0C002B04DA6A6F2949204600F013FE2A4F6C
S31500003E1CDFF8B4800826AB6EF340DA0707D557F8FF
S31500003E2C262013781BB14146204600F003FE0136CE
S31500003E3C102EF0D195F86830002B7FF47FAF1F4918
S31500003E4C55E7124D1E491C4FDFF87C80204600F0CA
S31500003E5CF1FD6A6C0E49204600F0ECFD1026AB6EA7
S31500003E6CF340DB0707D557F8262013781BB14146DC
S31500003E7C204600F0DFFD01361A2EF0D15EE711491F
S31500003E8C4BE700BF054B0200424B0200000000202E
S31500003E9C724B02008B4B0200A54B0200BD4B02007D
S31500003EACF74B02002A4C0200664C02008B4C0200B7
S31500003EBCAF4C0200C64C0200944A02000C4D0200A4
S31500003ECC3C4D0200554D0200A74C02002DE9F84F5F
S31500003EDC164C174FDFF86080DFF860A00646002509
S31500003EEC23785FFA85FB0BB9BDE8F88F57F8043BCE
S31500003EFC10492246304600F088FD227804F101096B
S31500003F0C82B9627882B10BF0030103290CBF4146DA
S31500003F1C5146304600F079FD304605F0D7F90135AB
S31500003F2C4C46DDE74C46E8E74146F2E7384F0200DF
S31500003F3C04000020FC4A02006D4A0200C740020041
S31500003F4C00F00CB800F00AB800F008B800F006B89B
S31500003F5C00F004B800F002B800F000B872B61EF01B
S31500003F6C080F09D01EF0040F0DD0DFF850E0AEE8B4
S31500003F7CFF1F6FF002000CE0DFF840E0AEE8FF1F19
S31500003F8C6FF00E0005E0DFF834E0AEE8FF1F6FF0CF
S31500003F9C06006946EFF309828EE807008646084854
S31500003FAC084C854501D3A54501D384F30888FFF752
S31500003FBC81FC84F308881BF081F8000004000020C3
S31500003FCC20110020401A0020FFF7C6BF704770472B
S31500003FDC37B57F2A14BF154600254BF23462914241
S31500003FEC044619D17F2241F2020168460823FFF7E5
S31500003FFCEFFF082225496846FDF7E7FF30B908238D
S3150000400C7F2241F2F0116846FFF7E2FF082269466B
S3150000401C2046FDF777FF09E041F2F01291421BD1E1
S3150000402C1B490A6C496C013803340BB903B030BD1B
S3150000403C00F8012F013B84424FEA1222DBB2F4D185
S3150000404C00229A42F2D00132D2B2042A04F8011F9D
S3150000405C4FEA1121F5D1E9E701F47042B2F5805F20
S3150000406C07D1C1F30B0404F17E641A4603FB054128
S3150000407CCFE701F46042B2F5005FD7D1C1F30B0470
S3150000408C04F17E6404F58044EFE700BF2656020077
S3150000409CB081E00F70B5054616461C46DBB14BF2F7
S315000040AC3463994210D1082C28BF08247F2241F290
S315000040BC02012346FFF78CFF224607492846FDF7E7
S315000040CC84FF40B941F2F011234632462846BDE83A
S315000040DC7040FFF77DBF70BD265602002DE9F843F0
S315000040EC1546C2070446884603D594212648FFF791
S315000040FCC1FBEB0703D595212348FFF7BBFB04F463
S3150000410C7043B3F5805F1FD1C4F30B0404F17E64D6
S3150000411C6B1E1E4A23449342264603D99A211A48FB
S3150000412CFFF7A8FBDFF860903746BB1B9D4220D8F3
S3150000413C6A08414620461AF04DFF18B3B4211248BE
S3150000414CBDE8F843FFF796BB04F46043B3F5005F94
S3150000415C07D1C4F30B0404F17E6404F580442646AF
S3150000416CE0E7A1210848FFF785FB6FF00F06002456
S3150000417CD8E717F8013BFF2BD7D0AB214846FFF702
S3150000418C79FBD2E7BDE8F883AC550200FF07E00FD8
S3150000419CFFF7D6BE1FB501211648174C02F066FD77
S315000041AC01221146104602F035FF0421072003F0C8
S315000041BCF1FE124A1068516801AB03C3906818608F
S315000041CC01238DF804300D238DF80C3001A903233F
S315000041DC20468DF80D3004F0D6F8094B0422022146
S315000041ECC3F8802161621A60A36A0B43A36204B010
S315000041FC10BD00BF00250A00002005402E56020007
S3150000420C00E100E0014804F0B2B800BF0020054010
S3150000421C024B186800F00100704700BF00200540F3
S3150000422CA52808B505D1FFF7F3FF10B1014B002205
S3150000423C1A6008BD0000A442024A9368002BFCD108
S3150000424C704700BF002005400020704770470000F3
S3150000425C37B572B603F09DF85C4B5D495B698B60B4
S3150000426CE020002440230C764C768C76C8760877B2
S3150000427C48778877CB77574B8022602581F82020AA
S3150000428C81F8210081F8220081F8232083F800238D
S3150000429C83F80153202583F8025383F8035383F8DC
S315000042AC042383F8052383F8062383F8072383F86E
S315000042BC082383F8092383F80A2383F80B2383F84E
S315000042CC0C2383F80D2383F80E2383F80F2383F82E
S315000042DC102383F8112383F8122383F8132383F80E
S315000042EC142383F8152383F8162383F8172383F8EE
S315000042FC182383F8192383F81A2383F81B2383F8CE
S3150000430C1C2383F81D2383F81E2383F81F2383F8AD
S3150000431C202383F8212383F8222383F8235383F85D
S3150000432C242383F8252383F8262383F8272383F86D
S3150000433C282383F8292383F82A2383F82B2383F84D
S3150000434C2C2383F82D2383F82E03CB6823F4E06308
S3150000435C1B041B0C43F0BF6343F40133CB604B6966
S3150000436C43F400734B614B6943F010034B614FF4FC
S3150000437CE0234B6200F0CEF8FFF78AFB164A17488B
S3150000438C92B22146FDF71AFE62B6154B01255D6405
S3150000439C1A6842F480721A6003F540531D6104F0EA
S315000043AC93FA00F013FF01F07BF968460094ADF820
S315000043BC04408DF8035003F029FA00F063F91AF063
S315000043CCC1FE084805F0B4FC03B030BD0000000087
S315000043DC00ED00E000E100E0AC1000000000002061
S315000043EC00000E400C600200FEF7D6BFFEF7D5BFEC
S315000043FC032000F0C3B9000008B5FFF799FB044B86
S3150000440C0B289ABF00B203EB8000184608BD00BF0C
S3150000441C7C57020008B5FFF791FB044BC0F30F2243
S3150000442CC0B253F8223003EB800008BD4C57020093
S3150000443C10B5FFF77DFB0446FFF780FBC0B228B929
S3150000444C012C24D164F07F04E4B216E0072CF9D8D1
S3150000445C01A353F824F000BF874400005144000028
S3150000446C854400008B4400008B4400008F44000000
S3150000447C93440000974400000924204610BD0224F2
S3150000448CFBE70324F9E70B24F7E70624F5E70446D4
S3150000449CF3E700BFBFF34F8FBFF36F8F054A536A25
S315000044AC23F480335362D2F8943023F00103C2F81C
S315000044BC9430704700ED00E0054B01229A60022112
S315000044CC00221A61996004211A6199601A61704779
S315000044DC90ED00E0084B094930B5094C094D1A46D8
S315000044EC5819205843F8040B8B42F9D1064B13602C
S315000044FC064B074A1A6030BD9CED00E0BCED00E0AF
S3150000450CAC5702006412FF1F14000020A0ED00E05F
S3150000451C0900080010B502F044FF0446FFF7BAFF85
S3150000452CFFF7D8FFFFF7C8FFBFF34F8FBFF36F8FAF
S3150000453C064B05225A60064A536A43F480332046DA
S3150000454C5362BDE8104002F032BF00BF90ED00E0B0
S3150000455C00ED00E007282DE9F04704460E4628D06A
S3150000456C082808BF0224FFF753FE651E6F426F41F1
S3150000457C08B3012C1FD1A520FFF752FE2546EFF3F9
S3150000458C1088012383F31088EFF311894FF0000A8A
S3150000459C8AF31188384605F033F9344B013CC3F8DD
S315000045AC00A09A46042C59D8DFE804F00E4D4D5164
S315000045BC55000324D7E7FFF72BFE18B1FFF73CFE97
S315000045CC0025DCE70546DAE7294A136923F00403DC
S315000045DC136130BF274AD2F82834D2F81C24134072
S315000045EC9BB2254ACAF80030D2F800114C0502D508
S315000045FC1168480506D4D2F80011490306D512688D
S3150000460C520303D543F48033CAF800301A4BD3F85F
S3150000461C0021002A08DA1B68002BBEBFDAF800302E
S3150000462C43F40033CAF800301DB10121134803F0DE
S3150000463C8AFE384605F0FAF8AEB189F3118888F38C
S3150000464C1088BDE8F087012003F03AF8C2E7012094
S3150000465C03F050F8BEE703F077F8BBE78321084870
S3150000466CFFF708F9B6E786F31088EAE788200020FA
S3150000467C00ED00E000A0004000E100E00020054055
S3150000468CD4570200044AD2F81C341B0C1B04C2F883
S3150000469C2434024A1360704700A000408420002096
S315000046AC0021FFF757BFFFF7FBBF000037B5114CD2
S315000046BC01230020237005F02BFA254640B100207B
S315000046CC05F026FA20B100232370492003B030BD33
S315000046DC2B7833B102237F2200210DF106001BF04B
S315000046EC85FFBDF806300020B3F57F7F1CBF287010
S315000046FC0720EBE78D200020FF2910B40C4607D8C5
S3150000470C0749097841B1E1B25DF8044B1BF06EBF65
S3150000471C5DF8044BFFF7BEBC5DF8044B704700BF59
S3150000472C8D200020FF282DE9F041074688461546C6
S3150000473C1E4616D80E4B1B788BB10E4C237823B124
S3150000474C40F2FB110C48FFF795F801232370424603
S3150000475C33462946F8B21BF08BFF00232370BDE8C5
S3150000476CF08129461A46BDE8F041FFF7B7BC00BFF9
S3150000477C8D2000208C20002050580200024B1B7804
S3150000478C0BB11CF063B870478D20002070B516462F
S3150000479C85180AB9304470BD01F00F030A2B34BFDB
S315000047AC302437242344013A090905F8013DD2B2D5
S315000047BCEFE70000F0B5F9B100281CDA2D23B0F1B3
S315000047CC004F137000D04042012115E0801B864239
S315000047DCECB205F10105F9D904B927B14D1C3034F9
S315000047EC54540127E9B20133092B09D13030505406
S315000047FC0131C8B2F0BD00210023DFF80CC01F4602
S3150000480C5CF823600025E2E7C85802002DE9F04F5A
S3150000481C95B04FF0000B02AC81468A4617461D46F2
S3150000482C5E46A0463B7863B902ABE41AE4B2224674
S3150000483C19465046C847002840F093803444E0B2ED
S3150000484C90E0252B13D0BBF1000F14D1237001344B
S3150000485C12AB9C426DD3A4EB0804E4B2224641464B
S3150000486C5046C84700287CD12644F6B260E0BBF11E
S3150000487C000F00D101373B78632B00F092801BD8D8
S3150000488C392B09D8302B80F09E80002BCCD0252BD1
S3150000489C51D04FF0000BDBE7582B00F08B80622BCE
S315000048ACF7D12B6801936B6800934FF0000B009BBC
S315000048BC9B4543D10835ECE7702B1ED017D8642BDB
S315000048CC01D06C2BE5D16C2B05F1040B28686CD14F
S315000048DC7B78752B14BF0121002101D0642B00D1EC
S315000048EC01372246FFF766FF04445D46D1E7752B78
S315000048FCE9D0782B5ED0732BCBD1A4EB0804E4B2B1
S3150000490C224602A9504605F1040B2D68C84740BB48
S3150000491C2644F6B2C4B201302B5D002BFAD12246E6
S3150000492C29465046C847E0B926445D46F6B283464A
S3150000493C4446013776E723700134AAE7019B2046EB
S3150000494C13F80B100222FFF721FF12AB9842044614
S3150000495C0ED3A0EB0804E4B2224641465046C847A3
S3150000496C18B1002015B0BDE8F08F2644F6B24446C7
S3150000497C009B013B5B4582BF20232370013412ABA5
S3150000498C9C420BD3A4EB0804E4B2224641465046A3
S3150000499CC8470028E5D12644F6B244460BF1010B74
S315000049AC85E72B6823700435C6E7752B0CBF0021F1
S315000049BC012196E7204602222978FFF7E7FE05F14A
S315000049CC040B044691E77A7802F0DF02582A19D1D3
S315000049DC322B07F1010B09D129882F1D0422204601
S315000049ECFFF7D4FE3D4604465F4652E7342B09D109
S315000049FC2F1D2D680422290C2046FFF7C7FE042222
S31500004A0CA9B2EDE74FF0010B22E70EB403B503AAEA
S31500004A1C52F8041B019204F05BFFC0B202B05DF8C1
S31500004A2C04EB03B0704700000149FFF7EEBF00BF6F
S31500004A3C6D4A02000EB433B505AA054652F8041B9E
S31500004A4C019204F045FF04462846FFF7EDFFE0B25D
S31500004A5C02B0BDE8304003B0704708B504F038FF2B
S31500004A6CC0B208BD2DE9F04F9B46584B85B01B785C
S31500004A7C109F9DF844A0DDF85080064689461546E1
S31500004A8C002B00F09280072A00F291800E9B002BDF
S31500004A9C00F08D800F9B002B00F08980129BB3F5E4
S31500004AAC006F00F38480012801D1002F7FD0484B82
S31500004ABC03EB05131B7B002B7BD0464C10220021ED
S31500004ACC68461FF08AF904EB45141022B9F1000F61
S31500004ADC5CD1494620461FF080F9A37843F01003B9
S31500004AECA370E37843F03003E370BAF1000F03D1FF
S31500004AFCDBB243F00303E3703649129BCDF800B0EA
S31500004B0C6A01013B885A01EB020C63F30E108852C2
S31500004B1C0E9BCCF808300F9BCCF804309DF84C104B
S31500004B2C9CF80330012E61F383038CF8033042D1D9
S31500004B3C1323CCF80C309CE80F000CF1100E8EE809
S31500004B4C0F00DCF81C20CCF814706FF0030161F335
S31500004B5C9F02B9F1010FCCF81C2004D10F9BCCF8A5
S31500004B6C1830CCF804701A492A018B1841F80280C7
S31500004B7C0027159A5A6028469F605E73224669463E
S31500004B8C03F034F9384605B0BDE8F08F0021204615
S31500004B9C1FF023F91023A3700323E370BAF1000F5F
S31500004BACAAD1DBB243F03003A5E70B48EBE70B4881
S31500004BBCE9E70B48E7E7B8F1000FD4D19CF80230CF
S31500004BCC68F304138CF80230CDE700BF10220020E6
S31500004BDC9020002010210020028000F0018000F0BF
S31500004BEC078000F038B5104B1B780546BBB1C0B139
S31500004BFC02F0D7FB0D49002301EB0312147B3CB9E1
S31500004C0C2B6001231373146002F0D1FB204638BDD0
S31500004C1C0133082BF0D102F0CAFB0548F7E705482B
S31500004C2CF5E70548F3E700BF10220020902000208E
S31500004C3C048000F0028000F0018000F038B502F02C
S31500004C4CB0FB0B4A05460023D1180C7B5CB910331C
S31500004C5C802BF9D103F07EF8064B28461C7002F027
S31500004C6CA6FB204638BD284602F0A1FB0248F9E710
S31500004C7C9020002010220020058000F00D4B1B78A0
S31500004C8C10B5044693B1072812D802F08AFB0A4BDA
S31500004C9C03EB04131A7B2AB100241C7302F087FB66
S31500004CAC204610BD02F083FB0448FAE70448F8E7F7
S31500004CBC0448F6E71022002090200020068000F021
S31500004CCC028000F0018000F013B5164B18680190B5
S31500004CDC00238DF8043002F064FB134B1C7824B1CE
S31500004CEC02F065FB114802B010BD01221A7002F0E9
S31500004CFC5EFB0F4B1C731C7783F82C4083F83C40EF
S31500004D0C83F84C4083F85C4083F86C4083F87C4015
S31500004D1C04230DEB03008DF8073003F03BF8204617
S31500004D2CE1E700BFEC58020010220020038000F0DF
S31500004D3C9020002010B588B00E9C07940D9C06940C
S31500004D4C9DF8304005940B9C04949DF828400394E0
S31500004D5C0024CDE9013400920B460246214620463A
S31500004D6CFFF780FE08B010BD10B588B00E9C0794F6
S31500004D7C0D9C06949DF8304005940B9C04949DF86C
S31500004D8C284003940024CDE9013400920B460246D8
S31500004D9C01212046FFF766FE08B010BD08B50A4B88
S31500004DAC1B785BB107280BD8084B03EB00131B7B56
S31500004DBC43B1002102F0E4FF002008BD0448FCE7E3
S31500004DCC0448FAE70448F8E7102200209020002057
S31500004DDC028000F0018000F0078000F008B50A4B55
S31500004DEC1B785BB107280BD8084B03EB00131B7B16
S31500004DFC43B1012102F0C4FF002008BD0448FCE7C2
S31500004E0C0448FAE70448F8E7102200209020002016
S31500004E1C028000F0018000F0078000F008B50A4B14
S31500004E2C1B7853B107280AD8084B03EB00131B7BDE
S31500004E3C3BB103F02DF8002008BD0548FCE70548FA
S31500004E4CFAE70548F8E700BF102200209020002062
S31500004E5C028000F0018000F0078000F00D4B1B78FB
S31500004E6C93B1072812D889B10B4B03EB00131B7BAC
S31500004E7C73B10A4B1A6A012303FA00F010401ABFE9
S31500004E8C00200B700870704705487047054870473E
S31500004E9C05487047102200209020002000200E406C
S31500004EAC028000F0018000F0078000F00B4B1B78AD
S31500004EBC10B50C4663B107280CD859B1084B03EB57
S31500004ECC00131B7B43B102F0F9FF2060002010BDDC
S31500004EDC0448FCE70448FAE70448F8E710220020E7
S31500004EEC90200020028000F0018000F0078000F086
S31500004EFC2DE9F843174E326EF36E12EA030800D50D
S31500004F0CFEE7154CDFF854900127002518EA070F29
S31500004F1C16D02368B7669BB1A16862680131A1609F
S31500004F2C28469847637B012B0AD148B909EB4513F0
S31500004F3C197B1A7F60F3410160F3410219731A77EA
S31500004F4C0135082D4FEA470704F11004DED1BDE800
S31500004F5CF88300BF00200E40902000201021002076
S31500004F6C70B5094E0446012504B970BD94FAA4F037
S31500004F7CB0FA80F005FA00F324EA030456F8203060
S31500004F8C002BF1D09847EFE714220020054B4FF485
S31500004F9C8022C3F880211A604FF48062C3F8802106
S31500004FAC1A60704700E100E038B504460D4602F081
S31500004FBCF8F9034B43F82450BDE8384002F0F7B932
S31500004FCC14220020074BD3F82804D3F81C241040D5
S31500004FDC20F42A5020F02A004004400CC3F8240484
S31500004FECFFF7BEBF00A00040074BD3F82804D3F848
S31500004FFC1C24104020F4AA4020F055000004000C9C
S3150000500CC3F82404FFF7ACBF00A000402DE9F84F0D
S3150000501C284C4FF0000A04F1A00580464FF0000919
S3150000502C4FF0010B237F84F81DA06BB1D4E900234C
S3150000503C994508BF9045104619460AD2B2EB0800AE
S3150000504C63EB0901C4E900012834AC42EAD1BDE89E
S3150000505CF88FE37F33B92377A369002BF4D084F858
S3150000506C1DB0F1E7D4E90267B8EB000069EB01016A
S3150000507C32463B461EF0EEFCB01A67EB0301236981
S3150000508C6269002BC4E900010BDD13441D2B63611F
S3150000509CE2D9461C41F100071E3BC4E90067636177
S315000050ACDAE7D31A1D2B6361D6D910F1FF3641F11D
S315000050BCFF37F1E76822002038B5074C0025637FDF
S315000050CC1BB1A369216A284698470135042D04F1C2
S315000050DC2804F4D138BD00BF68220020064B5A6A5A
S315000050EC99690A40D20705D501221A62034A136848
S315000050FC01331360704700BF0020044008230020D2
S3150000510CF0B5194E00214FF0FF324FF0FF337418F3
S3150000511C257F3DB1D4E900459D4208BF94423CBF72
S3150000512C22462B462831A029F1D1104900240C70B7
S3150000513C5C1C08BFB2F1FF3F0C4614D000279F42FF
S3150000514C0B496FF0640608BF9642086038BF3246BA
S3150000515C0849042502440D6201234A6523704B6AF3
S3150000516C43F004034B62F0BD682200205C22002051
S3150000517C58220020002004400F4B1B7870B50546C2
S3150000518CBBB102F00EF90D490023282606FB0312CB
S3150000519C947F14B935B90A4C07E00133042BF5D1C9
S315000051AC084C02E0012191772B6002F000F92046B1
S315000051BC70BD054CFBE700BF5D2200206822002075
S315000051CC041000F0011000F0061000F070B5204D30
S315000051DC2C78002C3AD101211E481F4E01F046FDB9
S315000051EC03211E4801F09AFF01211D48347101F07C
S315000051FC3DFD304602F02AFF1A49012002F00CFF51
S3150000520C194B1A485A6A22F4FF6222F007025A62B4
S3150000521C40F2FF721A62164A9C604FF00041C2F8C7
S3150000522C801111605A6A42F001025A622146A0228C
S3150000523C1EF0D3FD0F4B1C700F4B1C700F4B1C60DC
S3150000524C0F4B1C600F4B1C6001232B70002070BD94
S3150000525C5D22002000250A00001B0020050024000A
S3150000526CA0091400091B002000200440682200201D
S3150000527C00E100E0542200205C2200206022002085
S3150000528C082300200C2300202DE9F74F93465C4A97
S3150000529C1278074689461E46002A00F0AD80032880
S315000052AC00F2AC8002F07DF8564A282404FB072451
S315000052BC8046A17F924629B902F079F8524803B08C
S315000052CCBDE8F08FBBF1000F08D116B10C9938462A
S315000052DCB047404602F06BF80020F0E74B4A4FF41B
S315000052EC004C4FF4FA7000219568A6614FF47A725F
S315000052FC0023ECFB0B011EF0ADFBB9F1010F0246CE
S3150000530C0B46C4E9022309D14FF47A7303FB0BFB5A
S3150000531C1E2303FB10B323610F236361282303FBB6
S3150000532C07A301304FF0010241F10001C3E900016E
S3150000533C1A770C9A83F81F901A62354B1B78002B40
S3150000534CC7D1344C236801331EBF23680133236055
S3150000535C314B01931A78E2B9304B2C4E1D60042365
S3150000536C336200236FF064028B4208BF824238BF5F
S3150000537C104628447065736A019A43F004037362FD
S3150000538C012313702368002BA3D02368013B2360F1
S3150000539C9FE72368012BF5D1282303FB07A30026DF
S315000053ACDFF86890DFF874B01E77D9F8242022F065
S315000053BC0402C9F82420DBF80000281AFFF726FEA1
S315000053CCFFF77AFE26B9282202FB07A201201077E6
S315000053DC2846FFF795FE114BD9F808501868D9F8EE
S315000053EC5420019BA5EB000C121A187801360028E4
S315000053FCC8D09445D9D2C5E7094860E709485EE7A5
S3150000540C5D22002068220020031000F000200440DA
S3150000541C54220020602200205C220020582200200A
S3150000542C061000F0021000F02DE9F843264B1B780D
S3150000543C05460C46002B41D0032841D8002941D003
S3150000544C01F0AFFF214B282202FB05339A7F22B9CC
S3150000545C01F0ADFF1E48BDE8F8831A7F1AB901F0BA
S3150000546CA6FF1C48F7E7D3E900671B4B9D681B4B4F
S3150000547CD3F8008001F09BFF0021A5EB08008F42BA
S3150000548C08BF864215D3361A67EB0107B046B946F4
S3150000549C4FF47A75A8FB052312F5804005FB0933FA
S315000054AC4FEAD03243F1000142EA41422260002029
S315000054BCD1E74FF000084FF00009E9E70848CAE7C2
S315000054CC0848C8E70848C6E75D2200206822002085
S315000054DC031000F0051000F00020044058220020B4
S315000054EC061000F0021000F0041000F0F8B501F000
S315000054FC58FF084D084F2C68BE68FFF7EFFD2B6868
S3150000550C9C42F8D101F053FF0022901944F100019E
S3150000551CF8BD00BF08230020002004402DE91048E8
S3150000552C4FF47A74A0FB04BC1BF5804204FB01CC3F
S3150000553C4CF10003D00B40EA4340BDE81088000054
S3150000554C2DE9F8431A4C01F02CFF626AA1690A4056
S3150000555C22F0050153070546216221D5154AA76895
S3150000556C154EDFF85890012111709046636A23F0AE
S3150000557C040363623068381AFFF748FDFFF79CFD99
S3150000558C3846FFF7BDFD3268A768636DB91A9B1ADA
S3150000559C99F800200AB19942E8D2002388F8003025
S315000055ACFFF79CFD2846BDE8F84301F000BF00BF9D
S315000055BC0020044054220020582200205C220020A7
S315000055CC044B4FF04042DA621A6B22F040421A63E7
S315000055DC704700BF00300E402C48F0B5002203681F
S315000055EC2B4D114654592CB11E68AC18002E36D1D1
S315000055FC234601210832282AF4D101B1036025493A
S3150000560C254E0B680022144695592DB11F68B51806
S3150000561C002F2BD12B4601240832282AF4D104B1B1
S3150000562C0B6000681D4B026842B3DA69007922F000
S3150000563CFF020243DA611A6B42F0804209681A6370
S3150000564C0A68164BF2B1DA69097922F47F4242EA0A
